:20000000003A0120E5DD010039FB021039FB021039FB021039FB021039FB021039FB02101E
:1C00200039FB021039FB021039FB021039FB021039FB021039FB021011FB021002
:200040002DE9F04FB84EB01CADF15C0D00780E91090C1BD20E98C00B38BF0020C1F0638439
:20006000B04C04F10C00006858B107463D69384625F00CFE384620F0EDF92F1CF6D10020DC
:20008000E0600E9880F4804001F04DBC1DF03AFA00280F9001F044840F9F0020F2783978A2
:2000A00010900846D22810DCD22801F02E841A3801F0C5831738052841F227849F3801F022
:2000C0002484401E01F0AB830CE0D33801F01A84401E022841F21984293801F08183401E69
:2000E00001F05683AD4C3D4601224129DFF8B082AF7894F8420011924BDC412900F0B886CD
:20010000122923DC122901F01482072910DC072901F0CC82002901F0E882891E01F0D282E8
:20012000491E01F02E83491E01F0278301F0EDBA083901F06482491E01F05C82C91F01F0F5
:200140005082491E01F0108201F0DFBA2B2910DC2B2900F08487143901F00A83091F0A29A4
:2001600051D9103900F09187891E00F07D8701F0CCBADFF8F4C22C3900F00D870E3900F045
:20018000A786491E01F0E982491E01F0E28201F0BCBACD2924DCCD2901F0B9824C2910DCD3
:2001A0004C2900F0F885433900F05086891E00F02F86491F00F01286491E00F0F68501F01C
:2001C000A4BA4D3900F0DB855339072928D90839012941F29A82891E1A292BD901F095BA46
:2001E000CE3900F03783093900F0A381491E6AD013394CD00E3944D0491E3DD0491E36D0B3
:20020000491E01F082BADFE811F085097809800A55092409800AAF0AAC0A5A082F08530772
:20022000DFE811F0930A8F0A8B0AA705870A830A7F0AA205DFE811F059052605FC04EB04F1
:20024000E004CE04C404BC04B304700AAB0491046A0430040A04FD038A037F037503690A41
:20026000690A690A48032803690A690A18036F68002F00F0CE8408E06F68002F00F0C984AE
:2002800003E06F68002F00F0C4841220CFE36868007868B9DDF84080404623F091FA4FF4F4
:2002A000005041460FF0C6FF1AF018FE01F06DBA4FF6FF7023F084FA11994FF400500FF0EA
:2002C000B9FF01F062BA68681295002800F0A18400681390807E23F027FB061C08BF02205C
:2002E00000F00D811398109DC7694FF003092C463878A04200F305810F2410FB04F0401CA2
:20030000C0B2401918F05CFB5FEA000800F0F6801FF00CFE002840F0EE80109D159588F846
:2003200000504EE0AC540020145500201399032315FB03F6BA1991F81AA0B1F80C90528886
:200340000F2015FB00845046494621F0DDF8BA195288834608AB50461EF08CFF641CBBF14B
:20036000FF0F1FD0F0B1AA489DF827300168D80838BF8C2017D39DF826001623207103FBA8
:200380000B10C18800F10E02A4F805100189C4F80B201598A4F8071005E0C046D04F00204C
:2003A000501A002086202070B8194078BB1960705888608098F800006D1CEDB2401C88F8FC
:2003C00000003878A842B1DC1398817E474600F10E064FF00F0985893A78109190F80AA0D0
:2003E0001396159914950C468A4267DC204625F01AFB061C5BD0159D024641E015FB09F09B
:20040000391838184078491C02F8010B487802F8010B887802F8010B4888001202F8010B64
:200420000B785BBB4B780BBB087902F8010B487902F8010BB1F80500001202F8010BC87945
:2004400002F8010BB1F80700001202F8010B0879834624F056FA88B1D1F80B10584613F062
:20046000DDFB02460AE0C046344E0020487A02F8010BB1F80900001202F8010B6D1CEDB210
:200480003878A842BADC159900911198019002900391CDF810A00594149A069610980791F5
:2004A000139909230BF0FAFF304625F0F9F938461FF0D0FF24F0C2F8159820E011FB09F314
:2004C000F818FB185E78241DA4B2401C86B9467866B90079834624F014FA641DA4B238B1F0
:2004E000584618F09DFC001984B201E0A41CA4B2491CC9B278E740461FF0ACFF1020109028
:2005000013E114FB0972139930785288898908AB1EF0B0FE50B19DF82600014624F0F1F9AD
:2005200020B1084618F07CFC2D18EDB2641CE4B2DEE668681295002800F06B8300681390D6
:20054000807E23F0F1F9002800F081811398D0F81C8098F80070002F00F07981B800401C4A
:2005600018F02EFA0028149000F06F8124F01EFF1FF0DCFC002840F06581109E1696159644
:2005800098F80000B04200F3E5801698012840F08D80C84DA878EA68162111FB00F081B280
:2005A000562025F0A5F805F10C0640B9A8783268162111FB00F081B2562025F09FF86078F8
:2005C00080211DF033FB2F78B80018F0F9F9B846169000286AD02E78B8F1000F0BD005F1B1
:2005E00018014A7842704A8811F8144B42807F1E00F8044BF5D1002E3ED0DDF8409037466A
:200600004FF0140BCA46AEB305F1180412E0C046705F0020002808BF564607D04168066899
:2006200021611FF017FF207B401E207330461FF011FF2E7820690028ECD1761EF6B216FB91
:200640000BF2A0184188618041786170C188E1808188A18001890C30218109C804F10C01A2
:2006600081E80900105D2070A318C3F8109083F80CA02E707F1EC6D10BF074FDB8F1000FD8
:2006800011D0169C183547466078618821F0D8FAFF2804D02678810001EB00116E547F1ED3
:2006A00004F10404F0D116981FF0D4FE15981499087018B910984870119F0F70139890F888
:2006C0001AA00C4600F10E098689857A2078042110FB01F0804625F0A6F9071C1ED001466D
:2006E00010982278824222DC012A03D164780CB9DDF8448010990091119801900290039123
:2007000004953246CDF81480072306975046079149460BF0C3FE384625F0C2F814981FF027
:2007200099FE23F08BFF21F03BFF109890E08200A3185B780B70A3189B784B70A318DB7800
:20074000A2188B70B2F80320401CC0B21212CA70091DC6E7139B9F890E2016FB00856D1CF5
:2007600093F81AA0B5F80190394650464A4620F0CBFE834608AB50461EF07CFDBBF1FF0F25
:2007800048D0002846D02F78002F58D19DF82600E97888423CD19DF82700C00836D3BD487F
:2007A0000168A8884FF6FF72824201D1EF88B7B1162202FB0B17F880E8883881E87824F009
:2007C000A0F800B310990E370422384619F073FEE87818F025FBD5F80A5002460FE01620A6
:2007E00000FB0B156889042205F10E07E880A88910992881384619F05EFE12350422384603
:20080000294624F0BBF81198169018E08C2102E08D2100E08721159BDDF850C098000CEB72
:200820000002517029780CEB00075B1CB970DFB2B5F8011015970CEB0002A2F80310761C83
:20084000F6B29DE614981FF005FE102000E00220129D63E06868002800F0DB81686800680F
:2008600021F008FA00F00FBCAF68002F00F0D181109C6C7030B12046014602F049FD0028AC
:2008800000F09481119C91E16F68002F00F0C1811098687069680F7877B984F8460094F8A6
:2008A0002100401E84F821001198014620F064FE00F06BBF645F002024F0EAFE11980146D1
:2008C00004F062FB00F061BF6868002800F0A181067847681099082208A819F0ECFDE7B173
:2008E000C44810990170AEB1761E0ED0761E0AD0761E03D0761E10D111990170384608A96D
:2009000015F038FB0AE011990170384608A91FF051FB03E01EF066F900E002202C461090AC
:2009200079E06868002800F07481686800F112011FF040FBA7E36868002800F06A816A6834
:2009400010785188928813F087FB9CE32C466068002800F05E8106784588B0F804B0B0F898
:2009600006A0B0F808900A301290C5480779002F5BD0C2490F68002F55D0804678680078DA
:2009800086424DD123F01EFF002849D0027C002A46D04369002B43D010980C27824242DD9A
:2009A00010FB07F1595A8D4237D10E2018F008F8071C3AD0109807F10A0104235B1E01F803
:2009C000010BFBD1B880FF2139704FF6FF737B803881F8803E707D800422A7F804B012998C
:2009E000A7F806A007F10A00A7F8089023F0C6FF082017F0E5FFD8F8141018B938461FF03C
:200A000029FD12E007604160C8F8140098F81000401C88F81000109808E0401CC0B2BDE754
:200A20003F68002FAAD1022000E0119825461090D2E16868002800F0EC8010986870686858
:200A40001AF012FEA968088000F09FBEAF68002F00F0DF80109868702678AD686178002EC7
:200A600005F1010708BF28700FD0084640211FF0D1FC4FF47A710F2300F2E730B0FBF1F1B9
:200A800016FB03100F3828702678002F00F07D863046ACE0705F0020A968A28F94F83F3065
:200AA00094F83E6094F84070D4F838C094F841E094F8438094F8449094F845A094F846B0BD
:200AC000002900F0A68010996970A9680A81A968CB72A9688E72A9680F73A9688873A868AB
:200AE000C0F804C0A86880F80DE0606BA9680860A86880F80F80A86880F81090A86880F8FA
:200B000011A0A86880F812B000F03FBE6F68002F7FD0109868706868077D17B1C07C84F844
:200B200045006868877D17B1417D84F84610077C17B1C089A0876868077B17B18068A06384
:200B40006868877C1FB1407C84F84100686807790FB10068606300F018BE1099697070B1D5
:200B600094F83F0080090AD208A8082219F0A3FC24F06AFB08A81FF0EDFB00F006BE24F0DB
:200B800063FB4FF4FA7023F023FA00F0FEBDA86800283ED01098687024F0D4FD26E0CA48AC
:200BA000AF680478002F34D01098687020461DE0686800282DD0686800781EF051FA62E2B2
:200BC0006F6837B3109868706868007804F0CCFB00F0DBBDA868E0B1109868701EF0D4FD49
:200BE000002808BF11983FF422AF0078AF68387000F0CBBD904E00206F6857B1109868704D
:200C00006968088889781DF049FC00F0BEBD686808B902200BE7AD4C6968082204F10C001B
:200C200023F0ACFE686801896180807A2070EDE06868002800F02B820188ADF8301040889A
:200C4000ADF832000CA9532020F080F950200DF1320120F07BF9E1200DA922F001FC686851
:200C60009DF834100079884200F0B6808DF834000DA9E12020F06AF9AEE0C0462055002026
:200C8000645F00206868002800F00182007820F0D3FE4646686896F838104078884213D016
:200CA00086F838000DF13501E12022F0D9FB68689DF835104078884206D08DF835000DF1A9
:200CC0003501E12020F042F96868119C407804FA00F0B06423F06CFC10988046A6F89080C4
:200CE000204621F01DFD4046A1E66F68002F00F0CE817C884646F486387886F846007B898F
:200D0000387A738786F838007A68B264B989A6F84410B87B86F85800F87B86F82500387C72
:200D200086F823007C693465B86996F892107065387F884201D020F07FFE6968444604F13F
:200D400059001D3124F0F3FD94F8460004F12006082841D121207421324624F0CFFC1098E4
:200D6000022120F091FD37E06F68002F00F08F8103E06F68002F00F08A81122088E1686846
:200D8000002800F084816A6810889178D27820F03DFF8046A7E76868002800F07881686828
:200DA000017A427A1CF0A6F96DE16868002800F06E8140788DF82000686880788DF8210061
:200DC0006868007823F01EFC002800F060810C3008A9022223F0D2FD109859E169680029D6
:200DE00000F05581A868002800F05181087808A922F069FF6868A968007808709DF8200002
:200E0000A96848709DF82100A968887010983AE16868002800F03B810A30077807B9109AC0
:200E200047780FB142F0020287780FB142F00402C7780FB142F00802007908B142F0400225
:200E400069680888891C20F00BFB1CE16868002800F01D8102208DF8280068680088ADF827
:200E6000200068688178C27808A81CF08FFF0AE16868002800F00B8102208DF82800686807
:200E800001884FF6FF70884205D0821E8A4202D0C01E88420BD124F08FFBADF82000686881
:200EA000C27A837A811C08A81EF0FCFF687068680088ADF820006868C27A837A811C08A858
:200EC0001EF0F0FFDFE0C046C0520020185000206F68002F00F0DB8002208DF828006968A5
:200EE0000988ADF820106A681379B2F80680167AD2F80CB0177CD2F814A051886446221D15
:200F0000146810930346F21912FB03F00F305FFA80F9B9F14E0F3CDC24F04EFB884236D100
:200F200021700812607023F0B7FFA41C0146204624F0FDFC04461098207084F801804FEA3B
:200F40002823A370E670241D66B15846A41E017804F8021F30F8021B761E4FEA212161706A
:200F6000F5D1A41C27705FB1641E5046017804F8021F30F8021B7F1E4FEA21216170F5D1A2
:200F8000B84808A920224B461BF084F980E018467EE010207CE06F68002F78D002218DF8A7
:200FA000281068680088ADF820006868E146428883888679D0F80880077BD0F810E0D9F8B6
:200FC0000400F41914FB01F1891D5FFA81FCBCF14E0F42DC9DF828100F2918BF022908D17B
:200FE000BDF820404FF6FF71A14204BF891EADF820104FF6FF71914208BF8A1E00F8012BEA
:20100000111200F8011B00F8013B1C1200F8014B00F8016B66B14146801E0A7800F8022FA8
:2010200031F8022B761E4FEA22224270F5D1801C07705FB1401E71460A7800F8022F31F8C5
:20104000022B7F1E4FEA22224270F5D1484608A9062263461BF01EF9E9E41020E7E46A6805
:20106000AAB10220052217E0686880B102208DF8280068680088ADF82000686841880279D4
:2010800008A822F0B5FF68707FE3686810B902202C46E5E0022002468DF82800686800883F
:2010A000ADF820006868418808A823F08FFAEAE72C466368002B00F0D280187D23F0E8FA81
:2010C000002800F0CC809D691C331F78002F0CBF109802205F780FB140F010009F780FB14E
:2010E00040F00800DF780FB140F020001F790FB140F040005F790FB140F0800082466068B1
:20110000007D24F04BF95FEA000800F0A8806068807A8DF8290060688089ADF82A006068B9
:20112000007802288DF828000CD001280AD00F2808D003280AD1616808A80822891C23F011
:201140001DFC03E060684088ADF820006068877B002F73D0780017F033FC061C08BF10203B
:201160007ED010996068877B8F4261DCC18A838CCDF84880826A16950C2F139190F8229009
:201180001493BDF8208015924CDA40461CF072FA0C2816D14FF6FE701CF06CFA0C2810D133
:2011A000DFF808C3119910989CF82C310CF59A7C1CF8082B9342C4BF131C081C491C0C29A7
:2011C000F6DBBB4D4FF6FE7305EBC00568686B8018B11FF03FF91098686077B14FEA470BDD
:2011E000584617F0EDFB6860002808BF10201AD0686831465A4623F0C1FBA5F80280C448B0
:201200006F70159B0078169F287012990093139A019708A8CDF808A0149BCDF80C9009F0D1
:20122000C9FE00E00220607030461FF013F9ACE200694A00105A491CB05293E7816A00917C
:201240000195CDF808A090F822100391C28A838C414608A809F0AEFE25461090D6E502201E
:2012600025469DE1344E00206868002800F04781007823F00DFA071C00F04181387B1DF00C
:20128000C9FE0028687040F0808274683D46002C00F07B821098274617B9BD4202D074E2D1
:2012A000BD4209D1AC4219BF2968016028687060284624F0E9FA68E238463F68ECE76868C6
:2012C000B846002800F01B81007823F0E1F9002840F0BD8023F0FAFB052880F26081109F2B
:2012E00040466F7023F0C6F9041C01D0237B73B11C2017F065FB041C00F0478239461C22CB
:2013000019F0D9F884F80480DDF8448000E0B8466868007820736868007AB61C20761420BB
:20132000266117F04DFB0028606141D03946142219F0C1F86968626949689079897900F01E
:20134000F00001F00F01014391716868406861698088888068684068616900780870686802
:201360004068616940884880686840686169C079C871686840686169007B08736069C0797D
:20138000400017F01DFB616988606669B3681BB13846F179814250DC307B400017F010FBB2
:2013A000306161690E691EB138460A7B82423ADC04F10C00814613F0DBFC0646022E18BFBA
:2013C000B82E06D1207B1DF025FE484613F0D0FC06463EB9B8F1010F20D1204620F0E8F8E5
:2013E000C8B11BE0B8F1010F15D0606968B183681BB118461FF02EF8606903691BB1184650
:201400001FF028F860691FF025F848463946102219F051F802E0204624F036FA022E16D075
:20142000B82E14D0B1E16B685B6842001B690969D35A53526169401CB7E76A68526841001F
:201440009268B3688A5ACA526669401CA1E7D020A6E06868002852D0A86800284FD0109934
:20146000082219F028F869680878498821F054FC071C19D010986870A96838880880B87881
:20148000A9688870AC68A078002800F07E8117F097FA6060AA685068002800F076819278C5
:2014A000F91C23F06BFA70E1B12079E00C0E0020380F0020686810B3A86800B31098C74A74
:2014C00068706968176809783FB13A79914204BF401CC0B23F68002FF7D1A9680870A86825
:2014E0000078400017F06CFAA96848606868A9680078496821F0C8FF47E16F680FB9022043
:201500004EE010986870686800781FF03DFD3CE1014F0020022068706968002900F0358165
:20152000087849881FF04EFD002800F02E81109893E66868002800F0B780696808A808224E
:20154000091D23F01BFA032023F090FA6868C07B20F028FB6868817B009102788389418893
:2015600008A813F0CFF88EE56868002800F09C80384623F07FF8041C14D11C2017F020FA10
:20158000041C00F0028110991C2218F094FF2771204620F00DF828B920461EF05BFFD12083
:2015A0001090C4E7E088D24940F00800E08040F00400E080022024F053F8D149032024F05F
:2015C0004FF8686800680890686800798DF82400119F8DF825708DF8267008A81BF0FAFC6C
:2015E00051E5686800285FD068681099008801F08FFECAE06F68002F56D0C2202DE6CB4831
:201600006F680478002F4FD01099697068682A2218F051FF46466968F08E08806868B6F852
:201620004470847269688F81708F6968C8826868082206F1200707F139010E3023F09EF9D3
:2016400023F02AFC014668680822801C23F096F96868082207F11C01183023F08FF9686810
:2016600096F8381080F8231011986968B04C81F8220021784A0824BF6A6882F824008A0808
:2016800024BF6A6882F82500CA0824BF6A6882F826000A0924BF6A6882F82700C90924BFB1
:2016A000696881F8280070E00220D6E5686850B390F90000044622F097FFA86800B1047008
:2016C000FFF7A4BB6868F0B110986870696817460F706868022646706868867068680624A9
:2016E000C470696803230B714FE0686858B1407818B1FF20032120F0C7F823F069FF119884
:201700008C490860FEE70220BDE41220BBE41098687018F04BF938E01098687021F012FB91
:2017200033E029461AF086FE2EE029460FF022FE2AE0294614F0E2FE26E0294623F056FEC4
:2017400022E029461DF0C3FA1EE029461CF04EFF1AE029461AF066F816E0294615F0FAFD56
:2017600012E023F0A7F91BE729461CF0F3F80BE03846294605F042FA06E0294604F048FFC3
:2017800002E0294604F026F9119011981090BCE0162022F076FA3C46071C00F0B680DDF807
:2017A00040801622414618F086FE9320387046467E7060783871A07838742079012814BF6F
:2017C00002200120B871E0883881E0783875A07822F05EFF002800F086808BE0DC55002016
:2017E0000A2022F04EFA071C00F08F80DDF840800A22414618F05FFE4646912038700F9D05
:201800007E70A978797169783971E978B971A9883981A87822F03CFF002864D06AE038463D
:201820004078904271D01099434BF070F21C4FF0007020F0EDFF70784049087065E030200F
:2018400022F01FFA3C46071C5FD0109D3022294618F031FE922038707D70A07B03283871AE
:201860001CBFE088F88004D1B81DA11D082223F085F8E07BB873208A388260887882A08897
:20188000B882608AF882207D3876667D284606B101207876607E00B10125BD76A07DF876D5
:2018A000E07D387794F918007877E069386294F8200087F82400A08DF88494F82E0087F874
:2018C0002800A08C7885A08C17F07AF8F862E0B1A16AA28C23F052F8207D22F0D9FE48B90A
:2018E000F86A1EF0B7FD384622F0D2FA0DE0C0464D010200007939461DF0CEFA05E0C0466D
:2019000055510200384609F003FF1098012803D00F9822F0BDFA03E00F9988781DF0BCFA44
:201920000E9880F4004017B0BDE8F08FAC4C0020EE6500207C05204341360200D81A002068
:201940002DE9F04FB74CDFF8E0A294F8207088465FEAD800ADF1140D80F095825FEA1840E4
:2019600024BF4FF6FF7BABF1010B80F05F81504600785FEA5831A0F1020080F03681BB4D2B
:20198000A91D09885FEA182280F0EF805FEA980180F0D6805FEA183028BF88F4006080F022
:2019A00044835FEAD81080F0A780E7685FEA983062D2A0695FEAD83138BF0020C0F035832A
:2019C000A94928C96A4628C209881180676938B9384623F0F8F9A061C0B997B90B2011E03F
:2019E000017BFF2906D031F07F000FD101F07C0104290BDBE06940B9384623F0E4F9A061BB
:201A000020B9002023F0DAFC33E0A061637801201AF05EF900EB40004FF48041024618469E
:201A200023F064FF94F82010A069082919D00188ADF80010017A8DF80810017B491CC9B29F
:201A400031F07F07017306D10188427A684622F0CFFAA06909E0008800210A4620F0D6F8FD
:201A6000F7E7017B41F040010173406923F0ABF9E06188F48040D8E2DFF8BCB200264FF0E5
:201A8000030AB14687B96078012E04D04FF400511CF0CCF805E04FF400514FF47A7223F008
:201AA00025FF88F40050C0E27D68287810B3F02820DC51464A466B461DF0DCFBD0B1029861
:201AC00003889BB984F83E908DF80DA08DF80C9003AB0A20494652461EF04AFADBF8001056
:201AE00084F83E9031B12878884703E001880126491E01803F68C5E71DF046FE0746207847
:201B0000BFB1401EC0B22070A0B160784FF480411EF080FC30B9606923F055F910B93878B2
:201B20001BF018FB6078402143F6982223F0DEFE207810B90B2023F041FC88F0400074E282
:201B4000B0F1FF3F18BF00280CD168460021082218F0B1FC68461EF0FDFB18B160780221A4
:201B60001BF0FEFC88F002005FE2084600211DF0E7FD28460678FF24C6B14FF6FF75001DE9
:201B800000212B4610F8142F52080BD3C7884FB1BB4207D055B10289BF1ABAB29542C4BFDD
:201BA0000C1C151C761E01F10101EBD1FF2C19D02E49A00000EB0410401818300189C088EC
:201BC000401A80B250B929484470FF2008F042FBFF2120460A461EF00FFA00202349C88036
:201BE00022F036FA88F080001FE2B0F1FF3F18BF002814D13846401E0CD0801E0FD194F825
:201C0000220002280BD1012084F8220000201EF061FD04E094F8211000201FF0ADFC88F45C
:201C2000805002E2D04F0020E84E002060781BF069FC051C08BF88F4004000F0F6812F7861
:201C4000D32F00F0088194F82000B84210D00A2F40F0158194F83F002871A16A002900F0FC
:201C60000E81A81C88470AE1A4700200645F00209AF800007F1E00F09780BF1E40F0FF809C
:201C8000012818BF022840F0FA80AF787FB37F1E40F0F5806A7860781AB323F08DFC4FF66D
:201CA000FE720021824218BF0121081C04D1BB48C08E1146814209D01046B84FADF8100087
:201CC00004A9A7F836B053201FF040F920F0D6F81FF098FEB149002081F8460017F066FE50
:201CE000CDE0022140F6B83284F82210A8E06878002855D123F0F6FC00210E4603461F4668
:201D0000A648636208300160002F45D1002B39D0002E1F4636D0B146C54821F0F6FF012832
:201D20000CD0BAF82E004FF6FF7181420CD03988884209D01CE0C046C4520020BC4807F1FB
:201D40000C0122F015FD98B194483989408F884201D1834501D13B7953B19048797990F85C
:201D60003200884209D19AF80E00B979884204D038461FF07FFF761EF6B2BF69B9F10109FA
:201D8000CAD1636A226B002AA8D0184631469047206B002873D1A1E7BF69761CF6B2B3E785
:201DA00000201FF02DF96AE0012818BF022866D16F7894F845003FB194F84410491CC9B2BB
:201DC000884284F8441043DB94F82100401E04D0401E3AD0401E1ED051E023F06FFA98B9BA
:201DE00094F8460020B1E06A002848D0804746E0002102200F468DF808000246ADF8007047
:201E0000684622F0E3FB13E0012023F041FC014603F0BAF833E0AB2000216A461EF0FAF924
:201E2000CDF808D004208DF80C0002A811F0F6FA60784FF480511BF0F9FE607841F2883202
:201E40004FF4805123F052FD19E01FF079FB16E001200021DCE7E88948F20101401A0BD0B3
:201E6000401E05D0801E0AD1284617F05DFD06E0284615F039F802E0284616F0C9FC2846D4
:201E800022F006F8D2E66178381C09D0401E00F0C680C01E00F0BC80801E00F0AE80C2E078
:201EA00094F83F00810980F0BE80C10880F0A080810875D20009C0F0B680062084F8200045
:201EC00023F0E0FB002865D01DF05EFC2569071C60D068684078800837D33878032100225F
:201EE0006B461DF0C7F928B968684078410830D20E201BE002980188B52912DAB421018044
:201F000060784FF47A724FF4005123F0EFFC4948416829B10078FF2814BF3878FF20884704
:201F2000256968684078400803D2092023F046FA0AE0092003228DF80C0003AB00218DF8D5
:201F40000D200A201EF014F8256968684078410869D339490E6816B980081BD363E0387845
:201F60001BF0F8F8002600B101260325301C02D00E2023F023FA0C2020706078402143F696
:201F8000982223F0B3FC0A208DF80D5003AB8DF80C0028E00E2023F011FA44E0501A002078
:201FA000042294F8400084F8202040083BD394F842706FBB50460078012818BF022832D17A
:201FC000012604F120000021E67018F074FA032584F8205030461CF09DFC0A208DF8016099
:201FE0006B468DF8006000212A461DF0C1FF1AE00520002184F820000EE0002084F83E0049
:2020000084F8200032220846042123F06FFC0AE022F006FB0420012102F0B6FF03E00120F1
:2020200001461FF0A9FA88F0040005B0BDE8F08FC04C0020C0520020A85300202DE9F04F84
:20204000DFF814B3C34C01214FF0E047ADF12C0DDBF804002569C06808931F400170C8486C
:2020600007924FF0000101704FF0020000EA020008BF002840F0F482DFF80893DFF8088380
:2020800011464FF480301E4600270840374008BF002832D100204FF4003110EA060701EA34
:2020A000020108BF00290ED137464FF48001384001EA020108BF002900F0C68200202871C6
:2020C0001AF050F9C0E22871EB201FF03BFE4A460020414610700878862801D11FF0B4FEA7
:2020E00023F03DFCE1690A68002313710968E16123F0C8FD22F02EFBA6E20020DBF8007080
:20210000287107F1B8000168DFF880A20F782FB951460F7817B1D0F8940480471FF07AFE11
:20212000812756469A4937709A4D0860FF232B702778A7700021A1812069DBF80050007AA6
:202140004A460E46801E81B2D5F800011670C0890A918842C0F26C82E1690831096804F13F
:20216000180001600426A6810A98DBF80060657EA17EE37E04F11902C01E80B206F1B80C82
:202180000A9005EB012051786081C1F30119DCF80010237109780692002908BFB9F1020FE0
:2021A00000F04682B9F1020F00F3428219B110F0070F00F03D82667800F00705AD1E022D92
:2021C00008BF002E00F0348231B141460978862902D1002D40F02C82001300F002000228BE
:2021E00064DA35435AD1DCF81C0090F88300022851D0E1690C31097805A801700527A7813E
:2022000023F0ADFB454606462878862840D1DBF80000403001680F6837B9D0F80C0580471A
:20222000DBF80000006C07689DF9140023F0DBFB7877DBF80000016C096800228A77006C2E
:202240009DF914100068C177304623F01BFD2679678923F084FB41460A7807F01007862A9B
:2022600015D1BB4D05F11E031A88521C1A8087220A7023F007FDE879B04206D11FB9002053
:2022800019F02AFA07E01B20FAE7E920F8E70646304623F0F7FC22F05DFACBE14146087842
:2022A000862803D11FF0D0FDA77866788FB186B9012F00F0BD816089022F03D110F0070FE2
:2022C00040F0B681032F05D100F00701032901D0AEE16089010980F0AB81011301F0020174
:2022E000022902DA810A80F0A38106994978C1F38108B8F1010F4FEAA111099100F09881D4
:20230000012900F09581B9F1020F14DA00F00701012918BF03290ED1B8F1000F0BD1099FA4
:20232000002F00F0858159460968AC3109680F78002F00F07D81BD49B9F1020F0ED0099E30
:2023400011F808708A5DB918CFB256B3C10928D3BF1E13E018640020140100200A46099962
:2023600008EB0207891809793A795218C109D7B212D2099958EA010613D0BF1CFFB210E0A0
:202380000C55002032670020356700203067002014670020C5460020099958EA010608BF18
:2023A00002270A9AC0F30020391A60718A42C0F23F81DBF800601146C91B091888B2D6F884
:2023C00050122081743080B2884700286678606100F02E810021742218F06DF80020E0705B
:2023E00062891EB9C14902F020000870BF48617906784FF0000C002E30D000292ED102F095
:202400000700032808D0012828D1DBF80000D0F8D40090F882600EB3DBF8040040690678F8
:202420001EB122F02FFDFE2815D0DBF80000D0F84C02804750B9DBF80000D0F84402804723
:2024400020B96289617994F803C007E00420E0706289617901E00420E070844665692689D3
:2024600005F1740305F17400AB65069B686093F801902E812089C9F3011A0029A5F85C009F
:202480001878AA8100F078004AEA00004CEA000028744FF0FF06AE730CBF2079002085F8AD
:2024A0003A8085F84900099885F83000A089002FA0EB010086B2A68100F0B580E169E78035
:2024C00068463A468919083115F0A4FABF19B8B2A0812846017C4FEAA90212F0030F02F018
:2024E00003076D4601F0400843D0BAF1020F4FF0000301D1C9090BD29DF801209DF80010F9
:2025000001EB0221A0F844100DF10205A0F84210804EB0F84410B6F842208A4203D04FF613
:20252000FF728A4223D1032F14D06A78297801EB022189B24186B6F84020AD1C01208A42FC
:2025400014D04FF6FF728A4218BF181C0EE0C0461453002060692946323023F0E8F9606938
:2025600037363146323022F003F908350346002B56D00698407886111ED06169BAF1020FCF
:2025800003D0087CC00903D309E058EA070306D16A782878AD1C00EB0220A1F84200032ED5
:2025A00005D068782A7802EB00220A8504E060692946283023F0BBF959460968AC310A688C
:2025C0006089167886B1BAF1020F0DDA00F00702012A18BF032A0BD162692FB94E4BB2F8B0
:2025E00042201B8893421BD100F00702032A05D0012A18D1886A90F88200A0B1D1F89C1143
:202600006069884778B90020069FE070B97866697878C1F3011100F078000843307402E0ED
:2026200019F0A0FE06E00CF003FC03E05C7E020022F082F823F093F9E1690A6800231371C5
:202640000968E16123F01EFB079A089F202100201140384008BF002930D022F043F82DE0DF
:202660002E4991F90000002803DD91F90000401E08702B4991F90000002803DD91F9000061
:20268000401E0870114600201E464FF080770840374008BF00280DD0224991F900000028AB
:2026A00003DD91F90000401E08701F480121017022F03CFA0020287119F054FE184A92F997
:2026C0000000A8B1079B089F02214FF0E0401940384008BF002914D092F90000002810DC92
:2026E000DBF80000D0F84C0580470AE032670020DBF800700D480021D7F8582401700846C1
:202700009047DBF80400C06800210BB00170BDE8F08FC046A8500020EA5000200F55002076
:202720000E550020105500200D5500200A5500202DE9F04F8F4C04F120000768ADF1540DDD
:2027400017B1002087F84500DFF824B2002517F148030BD0BF6D854E73612FB9584600680C
:20276000D0F84C05804773695868706023F0F7F81490082013F032FA18F03EFF5E4610B166
:2027800063A023F07BFA1BF0D5FA684622F010FC042069468DF80000284622F0E7FD606389
:2027A00022F03EFB09A822F061FD042009A98DF82400284622F062FDE06222F03BFB0DA810
:2027C00022F064FD04200DA98DF83400284622F065FDE16A206319B955A023F04FFA206B95
:2027E00010B958A023F04AFA606B10B95AA023F045FA3068D0F8E00380473068D0F8F00285
:202800008047DBF800002F460726A03001687B5823B118468047DBF80000A030761E07F148
:202820000407F3D1D0F8B8028047EB2022F0CAFE206A2F4670B105A8FF21082217F03BFE44
:20284000206A05A9082221F013FB04F12006012818BF3768484A0CCA05A8391C80E80C005F
:2028600022D1082016F0ACF85FEA000800F08F80A8F10206032722F084FF06F8020F7F1E37
:202880004FEA20207070F6D13020F82706F8020F4146082204F13C0088F8077022F06EF849
:2028A00040461DF0D7FD04E004F13C00082222F065F80120082105AA22F01AFF04F13C06A8
:2028C000002818BF09285ED120F055FF800855D205A8FF21082217F0EEFD07AFFF2108229D
:2028E000384617F0E8FD0120294608223B4622F0F5FB002847D1384605A9082221F0B8FAD8
:2029000000283BD130463946082222F037F83AE052616E646F6D5F736565644175746F6DA2
:20292000617469632829206661696C656400C04641455343434D206F70656E206661696CE0
:20294000656400C0414553454342206F70656E206661696C656400C054524E47206F706595
:202960006E206661696C656400C046C0A850002014010020200100200C7A0200012008213E
:20298000324622F0BBFEE22031461EF0DFFA20F0F2FE400834BF2E1C0126CE4F5520012134
:2029A00007F1420222F0A4FE18B916B128461FF00FFEC94FE22007F1400120F051FD3046DE
:2029C0001BF0EAFD05A82946102217F074FD6220102105AA22F08CFE28B926B162201021D6
:2029E00005AA22F08BFE05A82946102217F063FD304611F0B3FD30461EF04EFA304611F06E
:202A0000B9FF1EB1284601211EF03EFF1C2015F0D7FF0028A06300F01D81606AA16A221D70
:202A200019F000FBDBF80010D1F84C138847A16B201D0860606AA16A04F1080219F0F2FA3E
:202A40001CF008F8A16B04F108004860606AA16A04F10C08424619F0E5FAA04EB570711CCB
:202A600008702F3106F13000129107F1380122F05EFFDFF86C9297F8240007F148032946DA
:202A8000B3606C22307009F5C67017F014FD04F1240A04F128001190A26B0168DAF8000080
:202AA000122709F5C67308324FF6FE7C7F1E23F806CBF9D1C2F8008004F1100219F0B2FA64
:202AC0008B4B894F736287497760884A0870119BA06B326204F1100704F11402C760196878
:202AE000DAF80000139219F09DFA824FF871022287F824204FF6FE70B88322F0CDF907F1E0
:202B000014087D4812990560404622F010FF4846FF2138225C3017F0CEFC78487A4AC26012
:202B2000784B8360764941600570794A4261774B03617949C161794AF260764B836179492E
:202B40007161794AB261764B336107F1300012F00FF9092608F12C00761E40F8045BFBD1FB
:202B6000F87948F201011CF0A3FDF8794FF400411CF09EFDF87921211CF09AFDF879222156
:202B80001CF096FDA06B1399119E0161DAF80000316804F1180219F045FA644AD580D560D4
:202BA0009570556101261574074615704948167148F20201477038461CF07AFD48F201018F
:202BC00038461CF075FD48F2040138461CF070FDA16B04F11800119F4861DAF800003968DE
:202BE00004F11C0219F01EFA514B207051499870284622F035FD5049304622F031FD4F493A
:202C0000042022F02DFD4E49062022F029FD4D49072022F025FD4C49082022F021FD987871
:202C20004FF6FE71491C1CF043FD4A4B484F47482849494A7B60494B88620846C362A06B99
:202C4000BA600F463B4687F8466004F11C078761434A1A631CF09CFA11F024FE149823F0D1
:202C600011F80EF045FE20F0CBFEDBF80000D0F8D40090F8430020F0D5FEDBF80000D0F879
:202C8000582429460120904722F0F6F93548DBF804700570F868007830B9DBF80000D0F8BB
:202CA000582428460146904716F020FB2E48058145812B4603602E4A43602C48072120F08E
:202CC0006BFB16F0DFFB1EF023F91EF01EFB15B0BDE8F08FD04F0020E84E00202851002046
:202CE0000C0E0020D854002045090100FD6C0100AD520200AC4C002020500020A4530020D5
:202D00005D79000091400200C5C101001D20020009380200D1190200713D0200D14F010044
:202D200089390100E5370200BD890000645F002014550020A5510200695102007D5102007C
:202D400091510200554D02006D4D02001DED0100C05200205502020035E70100050C020069
:202D600075FB010031670020C0660020EC000020EF5902002DE9F04FA548A74A0178A548F5
:202D80001170A64E4170B4495C307061ADF1340D08601BF02FF9B348B14C00F5E470079061
:202DA00004F5047000F12001089100F1A20100F592700A90AB484FF0000AB146A74D099115
:202DC000401D0B9090E1606AE769A64B860006EBC006F6191F7810361B2F20D1184698A184
:202DE000042220F055FE002826D09E4895A1042220F04EFEF0B19B4893A1042220F048FE5A
:202E0000B0B1984891A1042220F042FE70B195488FA1052220F03CFE002840F02D81402FB5
:202E20000BDD5B2FBCBF2037FFB206E0FD2704E0FC2702E0FB2700E0FA27307996F805B09B
:202E400002285DD0032840F0B6800798514640F2A51217F030FBD0460898099B31790090A5
:202E60000A9A01930329029245D173796BB90D2F33D101207071B06803681BB1C0886946AC
:202E8000524698474FF001082AE01B2F31D07F2F2FD0FC2F07D0FD2F0FD1B1688888CB88E7
:202EA0001B185B1E04E0B1688888CB881B185B1C93FBF0F242439B1ACB80B068036833B100
:202EC000C08852460D2F08BF0122694698470D2F18BF4FF0010886F80580B8F1000F0AD06E
:202EE0000298316880221FF031F801200CF0FEFD01E086F805A07079584518BF1B2757E0D3
:202F00000798514640F2A51217F0D5FAD0464FF0FF31099BADF81810089804930A9A039058
:202F20000B46ADF81A3030790592022840D173792BB90D2F1CD101207071FE201BE00D2F86
:202F400007D01B2F14D186F805A0B3684BB1F92004E086F805A0B3681BB1FF2003A906AAAF
:202F6000984784F801A050460CF0C0FD4FF001087379EBB13846B36813B103A906AA98479E
:202F800001200CF0B3FDBDF91A004FF00108B0F1FF3F0BD0BDF91810B1F1FF3F06D0E08599
:202FA000A185424662701BF0DFFE01E084F801A0B8F1010F60D0E269616AB7F10D002FD0F8
:202FC0000E381AD0643813D07D38012854D8107A012851D0FD2F1CBF0144491C02D1107A56
:202FE0004118491EB1FBF0F24243891A616240E0D768A06A4FB160623AE0BBF1000F02D0C6
:203000007779002F35D0226AE261117A491EEDE720010020A43400203867002020190020A6
:20302000880000EBC100801814300778E7B1012F1FD14768EFB108463946884719E0C0465F
:203040001B5B41001B5B42001B5B43001B5B44001B0000000000C046D04B002050180020AA
:203060000C41002054410020A162C4F824A04768E76150460CF03AFDA4485146052217F03A
:203080001AFAA0680B99052222F0A8FB288920F040002881800A10D32E6D686BEA6BB042C8
:2030A00004D11AB1504608219047EA6B286BB04203D112B1012008219047A5F808A01DF0F6
:2030C00089FCD9F80C0080080CD399F80000C421524606AB19F0D0FCD9F80C0020F00200A4
:2030E000C9F80C0018F096FED9F808004FF0FF3122F0C0FD0028F7D099F800001AF002FACA
:20310000061C00F0E18031782A7899F80000923949D0891E43D031391FD0491E3CD0491E8F
:2031200004D0C91E30D0491E2AD03FE07549B07B85F87600378AA5F87870371D3B6878685B
:203140000B60FF2A486002DA521CD0B22870504617F062FA11F0A6FD28E03079F71C052841
:203160000AD1F0780D2807D0D9F81000644922F07DFD654822F015FC384617F04DFA15E055
:20318000CD215246032304E08DF818A0C12106AA082319F03FFC09E019F0A0FC06E0F01CE1
:2031A00007F03CFC02E0301D13F042FF30784FF00108712821DC71284DD065280FDC65282C
:2031C0005FD0801F6ED0423874D0183867D0401E62D0401E01286DD9801E55D068E0663898
:2031E0004CD0801E47D0801E032863D9001F3ED0401E38D0401E32D05AE091280FDC91286F
:2032000058D07238022855D9C01E20D0401E1AD0401E4FD0C01E4DD0801E4BD048E092384B
:203220000DD0C01E012845D93038062842D91B3840D0801E01283DD909383BD038E0F76AD6
:20324000002F37D030E0B768002F33D02CE07769002F2FD028E0F768002F2BD024E0F768C9
:20326000002F27D020E0F768002F23D01CE0F768002F1FD018E0F768E7B115E0F768CFB16B
:2032800012E0F768B7B10FE03746786908B11DF0E1F8FF6977B107E077695FB104E077695E
:2032A00047B101E0B7682FB138461DF0D3F801E0D04602E0304620F0EBFDB8F1010F03D00D
:2032C00016B1304620F0E4FD288900283FF4F7AE81090DD30FF0C0FE10F016F9504617F03C
:2032E0009BF92A894FF6DF7122F0200011402981C109FFF4CFAE207801283FF464ADFEE7A1
:20330000A0860100BC1800209019002054410020974B2DE9F04FADF13C0D0A9100220990A0
:203320000221181D01705027DA7280465F72402159711046D873802199710021D971988967
:20334000197240F430509881A0219972997310461874012018F0BCFC28B9186820F00F00FA
:2033600040F0020004E0186820F00F0040F00100DFF80093BE4C6FF30F1048F220210026D1
:20338000014399F80050196098790C9684F82E005DB930461BF000F994F82E00000910D3FC
:2033A000304608A98DF8200008E094F82E00000907D301200DF121018DF8210052201DF056
:2033C000C5FD1BF0E5FE21F05DFBDFF80CA3DFF810B30B90002840F0B88012F0A5F80028C2
:2033E0000B9040F0A7800C9804F1200674210D903246212022F07CF9002855D10D99212075
:203400007422334621F06AFE00284DD1E08E4FF6FE71814248D001200D9094F84600082821
:2034200006D0042804D00FF023FD0C980D903BE00D9D42200DF122018DF822501DF086FD87
:2034400006F12F0143201DF081FD06F12C0147201DF07CFD06F11C014A201DF077FD06F150
:203460001A014B201DF072FD06F1240138461DF06DFD06F1160153201DF068FD06F12D0121
:2034800054201DF063FD06F11801E1201DF05EFD94F82E00000938BF0C9D52200DF12201DC
:2034A0008DF822501DF052FD0C9D14E0DAF804000C9AAF0007EBC50729460C233F180097A7
:2034C00001201DF0A7F920B93878FF2804BF002038706D1CADB20BF10400BAF800100068D1
:2034E000A942E3DC00B180471EF03BFA0D98B8B122F062F8A9F81C0028B998F8000000F0CF
:20350000F80088F8000003203936002789F80100314684F8467009F1140022F008FA01E04C
:2035200009200B900B9F6D480021002F418008BF0B9102D0012769480B9794F8381082460B
:2035400001208840C9F80C0068E011F0EDFF0FF08FFC04F120022120742122F0CFF802A886
:20356000FF210C2216F0A7FF354656460AE0C046E8650020294601200C2202AB1EF098FCD0
:203580006D1CADB23088A842F4DC5846006800B180471FF08DFF002006220C99ADF8100016
:2035A00002A816F088FF142015F00AFA061C1BD0AC480C300768A7B103270225A8B202A93D
:2035C0000622801921F0DAF9AD1D7F1EF6D104A93046022221F0D2F94C201421324622F0CA
:2035E0008DF830461CF036FF182015F0E9F9071C10D00C9D1822294616F05DFF0620294624
:2036000018223B461EF054FC6D1C032DF6DB38461CF020FF17F0B4F8304882460B98914DEA
:2036200001286BD1904E337804F1200723B3012B08D0022B0ED198F8000000F0F80040F0F2
:20364000020005E098F8000000F0F80040F0010088F80000854820F058FB002808BF00201B
:2036600003D0042189F80A10032089F801000CE0501A0020AC4C0020022098F8003089F821
:20368000010003F0F80088F8000022F07AF80999736B00F07F000818C9F80C306430022177
:2036A00080B20C90FF201EF0EFF84FF6FE70E086431C60870020A4F844301EF0BDF930782D
:2036C000012812D10A9801280CD002A80021082216F0F1FE02A806E02C5500205C5400204C
:2036E000B853002000201CF0B5FF212074213A4622F004F8002002211EF0C6F8E8680B9C55
:2037000080B9122015F05CF90646002EEE606DD04FF6FE70B61F0327411C26F8060F7F1E00
:203720007180FAD1002C61D106AB4C200021022221F0D4FC002852D1BDF8180000284ED0CE
:2037400004284CDA182015F03BF903274FF0020800244FF6FE7B0646EB681FFA88F14C20B4
:2037600006221B1921F0BAFC78BBE868015B8B452BD056B300962018418800221823062059
:203780001DF048F83069EA6800F2E93333611019418805F13402880000EBC100E968135049
:2037A000081973694188880000EBC1008018E9684360081941881822334606201EF078FB3F
:2037C00030460021182216F076FE7F1E04F1060408F10608C0D116B130461CF03BFE224B7B
:2037E000712000210822483321F078FC2048CAF80C002048CAF810001FF02EFD1F481E4975
:203800000860D9F8100050B109F11004076820681CF020FE38460028C9F81000F6D1099850
:203820004FF6FF71814217D00020012489F8090009F1090289F800402146852021F058FF20
:2038400009F1090528B98520002122462B4621F045FC0C9820F0ACFB1FF0FAFF0B980FB0C9
:20386000BDE8F08F904E0020E84E00205851002079DC00004D5302004C5300204F420200BE
:203880002DE9F04FC04CC14DDFF804A30E46300CADF1140D80F04D81DFF82C83700880F040
:2038A0000281C8480768700980F0DD80300928BF86F0080080F07F82700A80F09680F008B9
:2038C00080F08980300A63D2B00A5CD2C44C300B2BD2F00A27D3142015F072F8071C1FD027
:2038E0000025A846207A012813D1009704202946424614231CF08EFF58B920683860606893
:20390000294614223B46786004201EF0D1FA84F808806D1C0C34032DE4DB38461CF09AFDCF
:2039200086F4806047E2002045E2182015F048F8071C25D000252434A846207A012813D116
:20394000009706202946424618231CF063FF58B9206838616068294618223B4678610620E7
:203960001EF0A6FA84F808806D1C0C34032DE4DB38464146182216F09EFD38461CF06AFD0C
:2039800086F4006017E215F009FF86F4007012E218F0B0FB2178E079052902D021F0EEFCC9
:2039A0000FE004211AF042F9E079042118F0A2FE062021F05BF821F0E1FC15F0EFFE1BF013
:2039C0002FFE01201EF004FE0320012101F0DCFA86F08000EFE1FF2003211DF055FF21F002
:2039E000F7FDBC4901200860FEE7424692F84600082818BF042814D120322120742121F0B7
:203A00007DFEC04DC04B69682A88D8690024A9469846A24208DC00B18047002002211DF0CE
:203A200033FF86F48070C6E1A30003EBC403CF5C37F07F0C14D017F07F07CF540B4405D155
:203A400001A8FF210C2216F036FD01AB012021460C221EF02DFAD9F80410D8F81C002A881C
:203A6000641CA4B2D5E74FB17968087818B14868007817F01BFB3F68002FF5D121F09CFDFF
:203A80001C34208021F008FA5046C01D0078012806D1444620784FF40061642221F026FFB6
:203AA00086F0100087E1012020F0E0FF2878677800F007011220012918BF02292FD1E7B19B
:203AC000032F1AD0012F2AD1012928D10A2020F0CDFF444620784FF480611AF0A7F8502017
:203AE00004A91FF0BDFCBDF81000A4F84400BDF81000002116F008FE18E021F0DFFB30B1F6
:203B0000032F04D021F03DFE0FF05CFE07E0022020F0ACFFA949E068097819F069FC28B134
:203B2000E07901214FF47A7221F0E0FE86F0010041E1DFF890B2DFF8889233E1054627784B
:203B40002B789AF80000591E00F00A81491E49D0183900F02181B93900F01A812A3900F00B
:203B60001E811B1F32D09B1E14D09B1E40F01781012818BF022840F01281287913F0FAFAC7
:203B800021F0FCFB0BE1C046AC4C0020EC650020E84E0020012840F002816F88002F40F01A
:203BA000FE80281D01A91AF075FD012840F0F78021F002FDADF80C002D1D029501A813F0FE
:203BC000F1FDECE020550020501A0020012818BF022840F0E480404605F024FBDFE0C046EF
:203BE000A04E0020012818BF022840F0D88099F820004D46072818BF082805D1237A1BB944
:203C0000012101F0C1F92778032F7FD00A2F11D0042F15D00D2F13D00E2F11D00C2F0FD02E
:203C2000002F00F0BC801BF0FBFCE079102119F097FCB4E06648007800F00700012865D0F2
:203C4000277A60780FBB0020E07207462F711CF007F970B1062020F009FF9BF800000009BB
:203C600004D34FF4004001210CF0E4FA1BF0D8FC95E0082001210CF0DDFA052020F0F6FE54
:203C800042F2107020F0A4F989E0E17A01280AD0032823D1032001274C4D60700021677130
:203CA000A81C01701AE0491CC8B20428E07204DB4548007801280FD010E0444800884FF643
:203CC000FF71814208D00127042567710320A57203E0C0467C052043002060701EF0CEF8E5
:203CE0001DF090FE9BF80000000903D39AF82200012854D16078032851D1082001210CF04A
:203D000099FA4CE02C550020A4530020277A2FBBE079102119F024FC1CF0A2F898B1207867
:203D200003280CD11BF07CFC95F82000022806D101201EF04DFC0220012101F025F9062059
:203D400020F094FE2BE0082001210CF073FA052020F08CFE01201CF0BDFC20E00020FAE75D
:203D6000022F1CD1012818BF022818D121F08AFC40B921F0B7FC00280CBF002001201DF07D
:203D80003FF90CE012F0BEFC48B117F0A7F806E0404612F05FFF02E040460DF007FC4046EA
:203DA00020F076F8E07919F0ADFB5FEA00087FF4C5AE86F4004005B0BDE8F08F1150002030
:203DC000D04F0020EE65002028510020941A0020EC6500202DE9F04F04462089ADF1440D22
:203DE000002807BF30200021102001210CF022FA4FF0000B52200FA98DF83CB01DF0A6F86A
:203E00006068217A01AA0EF0A5F8002800F068829DF806000228B4BF01275F469DF8080055
:203E20000228A8BF5F46BDF80E004FF6F87880450BD008F10101814207D008F102018142E0
:203E400003D008F10301814200D15F4621F0AEFB9DF80710884240F04382002F00F0408253
:203E60009DF83500002840F03B82208D9DF80A60678EADF83000ADF8127056B161689DF861
:203E800005209DF82030012020F0C0FD002840F027829DF809709DF80A50DFF87092002F24
:203EA0004CD19DF821005E4658BBBDF80E0003461CF030FA3746022808BF0127002F9DF8DC
:203EC000067018BF012649460988994208BF46F0020626B1002F14BF402120210E43184644
:203EE0001CF018FA012808BF46F00106002F3DD00B9A107821F069F9012818BF26F001067E
:203F000035E09DF8250088B1FF280FD09DF824700C2F2BDA57B30A99891E21F04DFB31F854
:203F2000022F904222D07F1EF7D11FE04946BDF80E700888B84208BF222617E0BDF80E1003
:203F4000FF201EF0E9FE002808BF082608D09DF8090047F001072C2640F001008DF809006A
:203F600007F00307012F08BF46F011060B9A8DB9C648007870B106F0220022280AD006F038
:203F80004200422840F0AC811078062818BF072840F0A681F0094FEAA61A48D317783846EB
:203FA000C01E012825D9001F23D0C01E21D0801E1FD04946BDF80E600888B04240F0908119
:203FC0000520BDF810408DF839000EA81FF030FF002800F085810269032313261370511C2D
:203FE0000E704C7022128A70CF70448009F028FC76E15FEA5A001AD3032F02D150780D2850
:2040000015D09DF80C0038B1BDF8100007990FF09DF8012800F060819DF80B0038B1BDF800
:204020000E0006990FF092F8012800F05281B4F8447049460E310888B84209D1CDF800B057
:20404000208DB4F8421094F846205B460EF01EFB9DF80A00A44DDFF8949200286FD0208D6A
:20406000B4F8421021F0BAF9071C51D19DF8350000283BD195F88C00012860D10B980078AD
:20408000062802D15FEA5A0059D2BDF8121008F10700884200F02481BDF80E004946C91DE3
:2040A000097811B1E98E81421DD0594616F02EFE80B18079BDF81020BDF80E1010F0180FBC
:2040C0000CD0608E00901046238D9DF821201AF0B0FD05E1BDF80E10BDF8102010465A465F
:2040E00017F052FAFCE01BF055FEF9E004201FF0C8FD011C00F0F4806420087001274F70FE
:20410000208D488028781AF0C7FEE9E0861A00209DF805106068FB780A18527B9A4203D0AF
:20412000FA7058467860606840180421401C20F0ACF87968814200F2D380401C786095F8A0
:204140004600042818BF092840F0CA809DF81610B00980F09D800B985FEA5A01C0F0C08033
:204160000178042904D19DF82010022900F088800278072A04D19DF820302978042B4DD08A
:20418000032A46D00C2A40F0AB80401C10F8018B06784C4604F11C0201215120167021F00E
:2041A000ADFA0127524894F8203007705148B8F1000F08D1002B14BF4EF660244FF47A7422
:2041C00050F8230003E0203000684EF66024444303205946B4FBF0F44FF480400CF02AF814
:2041E0002878022119F022FD700807D2B00877D328780221224621F076FB71E04FF4804080
:20420000214613F0E5FF4FF4804039460CF012F866E001A859461CF0BDF861E008464FF4A7
:20422000806119F003FD5F460920494685F846001C310F7020F030FE0146069820F098FAE3
:2042400001284DD110201FF01CFD074607990B98002F00F1010043D002223A7043780278F8
:2042600002EB03227A80807878704A201CF06EFE9DF80A0010B9204905200870394641E75B
:20428000584601A909F0B0F82AE0C0467B1A002094F8460094F847708DF8380094F9486069
:2042A0008DF8397001298DF83A600CD1208DBDF81010884207D1BDF80E001CF02BF802286A
:2042C00008BF8DF816B0E26B01A80EA900F06EFA06E0BDF80E0001E0BDF810001BF050FB22
:2042E00011B0BDE8F08FC046501A0020E84E0020B4190020A0760200AC4C00202DE9FC477D
:20430000D44C0F460546F80B80F006826078DFF85883B90F80F0AA81B90880F09D81F90AA3
:2043200080F00281390B80F0CC80380907D2F80FC0F0288227F0804717F0BCFB22E221F05E
:204340000EFB81461FF0F4FD002800F0B480082021F07AF9002840F0AE80802021F074F9F1
:20436000002840F0A880684613F08AFC012803D10098002800F09F8094F84102002840F093
:204380009A8000250126E8B220F0F4FD48B1837A3BB1867290F9090006FA00F0C0B21DF041
:2043A000CDFB6D1C032DEED3032084F8200004F5CC7021F0CEFA484621F064FCD3480025AF
:2043C0002A460168056050F8081CD14940F8085C04F15C001FF00CFD40460068006B8047F4
:2043E000A168401A010BA06AC1F1FF3282422CBF08444FF0FF30A06294F82C0020B12069E4
:20440000A16AB1EBC02F25D91FF0A2FD294600B13146081C1BD0BF4840F609010180458027
:20442000417B06F00F0221F00F010A434273017B05F00F0321F00F0143EA010202732946DE
:20444000416020F073FF418811F4406FFBD084F82C60A5621AF07CFFCE4829460560022051
:204460001FF03EFA02201DF0ABFF112011F01CF9207818B96068483021F085FAC648007816
:2044800010B90E2011F010F994F82D0020B184F82D5005201DF094FFC048606284F820501D
:2044A000B4F9B000B4F9B210884214BF0220072015F0AEF802E0484621F0E4FB27F0080719
:2044C0003AE720B104201DF07BFF0020607065681CF0AAFF38B12846ED696FF480710022AA
:2044E0004FF00073A847E06858B140460068006B8047E2686168801AC860000BC86000267C
:20450000E660A74904F15C0000221FF071FC0221D4F89C0084F8201018B104F1DC0021F094
:204520003AFA27F4006707E721F019FA06461FF0FFFCD4F894100028894600F084800029D9
:2045400000F081809749042504F15C00002284F820501FF04DFC304621F094FB04F5CC705F
:2045600021F0F7F940460068006B8047E0604FF0010884F8018028461DF03AFFD9F8100000
:204580006060D9F81000416AC90803D3036A294600229847404618F04DFD606880F815809E
:2045A000606811F001FA6568D5F808A040F60A02D01F564600F1010C00E01E46736833B127
:2045C00019888A4203D0884218BF8C45F5D100217160727B08F00F0322F00F02134373731B
:2045E000D9F80C201288904224D06046904221D02B8E03B3696305F13002518095F83C00F8
:2046000001F00F0320F00F00034385F83C3095F83D0008F00F0320F00F00034385F83D3026
:204620007260707B01F00F0520F00F0045EA0001717300E0E160504620F078FE514640462B
:204640001FF04EF902E0304621F01CFB27F4806798E0C046C84600200AF096FAD4F89C00E4
:2046600008B927F002078DE08C0100104E4A116841F08001116020B104201DF0A1FE00205A
:20468000607021F06CF98246D8F85400016804208847D0B1287DC0B1A068B0B18146D8F8F5
:2046A00000002E69006B8047A0EB09002861000B2861B04202D280194008286140F6C41145
:2046C00081422CBFB0F5967F2961504621F0DAFA1CF0AAFE80B1EE6928466FF4807100224D
:2046E0004FF00073B047D4F89400002808BF47F0020701D017F0DEF92846AD6900214FF0EF
:2047000080630A46A84727F000573BE01410044019D60100FC65002021F021F9D4F8AC6012
:2047200066B306F1280106C90A234FF0E0450B40154008BF002B21D106F1280191E80003C0
:2047400006F1280595E8060006F1280322EA090221EA080183E8060021F094FAB16879B112
:20476000B9F1000F08BFB8F1000F09D03069B6F93010B5684B464246A84701E021F082FA0D
:2047800027F4804727B104F1DC00394621F003F9BDE8FC8700000460F67D02003D32010091
:2047A00089250100113F0200CC2108402DE9F04FADF1840D1B91CB491C923CC9064610A8C8
:2047C0003CC00EC980E80E0000248DF84240317F8DF84340B28D8DF84D40D6F828C0ADF801
:2047E00044400F46ADF85A20F2898DF854706046ADF84A20027802F00303022B8DF84020C4
:2048000000F3C38123461D93401C1F9353083CD202F00C0EBEF10C0F0CD053093CBF10F8C0
:20482000013B8DF84230BEF1080F04BF01238DF84C3001D08DF84C40BEF10C0F0AD0737925
:2048400003F00303012B0CD142F00C0273898DF8402004E045780378801C03EB0523ADF8C2
:204860004430530911D245780378801C03EB0523ADF8463003784578801C03EB0523ADF8F1
:20488000483010F8013B8DF8433010F8013B32F07F058DF855301ED0037833F003058DF857
:2048A000413040F06E8103F0030EBEF1030F00F0688113F0030F00F101000ED010F8013BA1
:2048C00002F00305022D8DF8573004BF10F8013B8DF8583001E08DF841401490A0EB0C006D
:2048E0003F1AFFB2B942C0F24C81C91B8DF85470C8B28DF84D00074300F04781D00907D306
:2049000070891BF007FD002840F03F819DF8402002F00C002146001F08BF01211E919109CC
:2049200033D301211F9180B3B28920F045FE904202D1F08D000A0ED220F03EFE904222D0C2
:20494000F08D01460B0A38BF101C07D39DF8402002F0030C2EE07089ADF85A20804620F08F
:204960002BFEBDF85A10884205D0404619F0EFFB002800F00A818648026810A940469047E6
:20498000002840F002819DF84020F08D02F0030C01460B0A0ED2D3090CD39DF8413013F0C9
:2049A000030F07D102F00C030C2B03D0082B1CBF01231D93DFF8E081BCF1020F00F0C280F8
:2049C000BCF1010F00F0908012F0030F40F0DD80704A92F82B20012A03D1B779002F00F09C
:2049E000D4809DF8542002231A92040A9DF84250BDF846B0BDF848A09DF855E09DF857C096
:204A0000DDF850908DF86430B2899DF84370ADF85C2034D21E9F40461730046897B91D9F1C
:204A20001FB1104610A913F0F9FC1F9800901C9F0197B07C1B9A0290F37C17A910A811F0AA
:204A40004DFBA2E0307C002C8DF8560000F09D8020F0B2FDBDF85C20904240F0968030791B
:204A60001F9F00901C9D01971B9A02951D9B039196F8300010A9049017A8A04785E0ADF844
:204A800030008DF820308DF8227034798DF833407189ADF818108DF835E08DF82350ADF857
:204AA00026B0ADF828A0CDF82C90307C8DF836C0B27C8DF8320096F830308DF83420354CDE
:204AC0008DF83730B4F8441096F83270ADF824101A998DF8387006A8ADF82A1005F0BEF9C8
:204AE00053E0C046787B02001D9FB58937B1000A04D2284610A913F091FCB5899DF85400E8
:204B0000B6791030C0B21FF0BCF8071C3DD07D81022038703E737C709DF854203A7207F1AF
:204B200010057D609DF84000800928BF01247C72149978681FF022FF4046007839461AF0E7
:204B4000ABF922E09DF8417040461F30B189036817F0030F10D110A807901048ADF8181081
:204B600006A91DF0C5FD80B1062141730068407B21461AF029FF08E03BB110A8224698471C
:204B800003E08DF84D408DF8544021B0BDE8F08F48530020501A00202951002081EC0100C5
:204BA0002DE9F04FD24CDFF84C93DFF84C83080CADF1140D019180F0D4810846400838BF6F
:204BC0000020C0F0D881676821F04CF8054620F0DBFC4FF47A764FF6FF726843B0FBF6F031
:204BE00081B267B13B887888CB1A9BB2984210DDC01A8242C8BF82B2FF68002FF2D14FF6B7
:204C0000FF70904200F095802078012120F06EFE8FE0B87902287FD021F024F8054620F077
:204C2000B3FC97F838204946684301F10A03B0FBF6F038801878904266DD97F83600FF28CB
:204C400008D197F83800401C87F8380097F8370087F8360097F8356097F8393000200121C8
:204C600001E0401CC0B283420FDD97F8365001FA00F285F0FF052A42F3D03618814097F88C
:204C80003600F6B2014387F8361097F83400B98F10FB06F2891A89B28842C7BFFF2087F853
:204CA0003600011C97F8360099F82320FF2818BF97F83A0006D140460078642510FB02F2E4
:204CC00012FB05F0788046B9388D3E7A40F020003885386C87F82E600BE03A8D4FF6DF705A
:204CE000104038853D6C87F82E6097F8342012FB06507862F879CEB287F82D0007F110002C
:204D00007E8405F0ABF810E0B87E97F82A10FA8BE9231CF0C1FB05E0387CFF2802D0B869FE
:204D20001FF0B6F838461DF08BFA2078012118F017FC019880F001001DE12878012840F0D0
:204D40000D8195F8338095F813A06F6995F83100698802221DF0D8FE05F11C0405F1020B9E
:204D600006460020002E02907BD1687F400876D3A87FCDF80CA020F011FBBA4605F1100980
:204D8000071C60D01C2013F01BFE061C59D000211C2215F090FBA87F69461EF094FF9DF822
:204DA00001000221307530461EF02EFA6888317DB08095F83100FF22F07102FA01F070749F
:204DC00078680078307495F83000B07495F8331011FB00F0303080B21EF053FF0746B761D3
:204DE00027B930461DF02CFA00262AE01A20387000237B701A467A80E0885946B880B81D9C
:204E00001FF016F9E0783C4BF87303F1200000883882608BB88560897882A0783875207B69
:204E2000787599F80000B87599F80100F87599F902003876039A7A76C7F81CA007F1300155
:204E4000B962304600E000200028064600F08680274886F808800078012118F081FB002E96
:204E60007CD0307AA8EB0000B0F1FF3F04BF01200290307CFF285CD06078400828BF4FF00F
:204E80000008317DF07C4018404503DCF074FF2088407074B069B17C227D806A08FB010032
:204EA00021691FF06BFD029F317D727C012398FBF1F04843A8EB000003FA00F11143C9B241
:204EC0007174DFB1401CFF2202FA00F001437174B769B17C207D08FB0100B884707CFF288E
:204EE0000CD1307CB16919F0D7FFFF20307420E0D8540020E84E0020741A002020F0B2FE5D
:204F0000074620F041FB1D4B1D4A4FF47A717843B0FBF1F0308093F8231010781F4610FB4E
:204F200001F1B87A6423401C10FB01F010FB03F07080F17C327DA8EB0100801AB0F1FF3F57
:204F400004D0707CFF2801D0029F3FB1E175707C2076BBF80000214613F060FA28461EF03D
:204F600097FF0848007818F0CDFA051C7FF4E5AE019880F4004005B0BDE8F08FE84E002061
:204F8000741A0020D85400202DE9FC41CE4C0D46CE4ACF4B94F83E601178401E072800F2F3
:204FA000B881DFE810F0970170010B01ED00C90080004900080005208DF8010094F83F00DF
:204FC0008DB394F82300002784F82000394684F8237042F208000BF02DF90D2694F83F0036
:204FE00084F83E6000F0DF0084F83F0004201FF03DFD94F82000394606280BD1606948B1A9
:20500000027BD30903D302F0BF020121027340690028F5D16078002900F079814FF4804191
:205020004FF47A7271E140F02000022784F83F003E4684F83E706CE10026012D8DF8016086
:2050400017D020F01FFB78B1052094F83F708DF80100314647F0200084F83F0008200BF084
:20506000E9F80A201FF002FD022084F83E00064614E0082031460BF0DDF804201FF0F6FC67
:2050800015F006FB0D2084F83E00607884F820600421C82220F02AFC94F83E6094F83F0015
:2050A00000F0EF0045E003208DF801000EB9012020722078002840F04F81627860691FF057
:2050C00082FE002840F0488110464FF480411BF0A1F9002840F040810025A561E5611DF099
:2050E00047FE60784FF4804118F0A0FD277A94F83E602FB10B2E03D1284684F83E002E4696
:20510000257294F820106078062906D094F82300062808BF84F8235007E084F820500421D4
:20512000322220F0E3FB94F83E6094F83F0000F0F70084F83F00ECE00221012D8DF80110E3
:2051400004D00820002584F83E000DE00025184684F83E500088D0852E32832020F0CEFA42
:20516000032128461CF090FB607884F820500421322220F0BBFB94F83F0000F0FB009FE0CE
:2051800001208DF8010065B100201F8884F83E000221D7852E32832020F0B0FA06201FF060
:2051A00065FC002084F8200060780421322220F09DFB94F83F0000F0FD0081E0012918BFBF
:2051C000022940F0A68060780421322220F08EFB94F83F10606A012D49D0022084F83E009C
:2051E00000268DF8046084F8206001278DF8017021F0020184F83F10522001A91BF0A6FEDC
:2052000020F022F81BF084FE1CF07FF8534D686820B168681BF01EF92E806E60DFF840810D
:20522000D8F800507DB128686F68006A1BF012F928681BF00FF968691BF00CF928461BF03C
:2052400009F93D1CEFD1404606601EF091FF4548007819F0FFFB30461FF008FC606A002826
:2052600055D01CF007FD606A0028FAD14FE00121002884F820106FD01CF0FCFC606A0028E2
:20528000FAD1BDE8FC8100201FF01EFF042601208DF80160D0733DB1002084F83E0084F81D
:2052A0003F0006201FF0E2FB002084F8200060783146322220F01AFB94F83F0000F0FE0060
:2052C00084F83F0023E0C046D04F0020E84E0020941A0020012918BF02291AD1012D24D06E
:2052E000012007278DF801004FF48051607884F83E7018F09BFC00201DF06AF9002084F8F8
:205300003F006078022141F2883220F0EFFA94F83E60A76A07B38DF800600A200021032223
:205320006B461AF025FEBDE8FC81002003211CF0ABFA04213222607884F8201020F0D6FA9B
:20534000082000210AF076FF002084F8210060784FF4805118F06AFCBDE8FC812C550020BB
:2053600034550020501A00202DE9F04FB74D014695F83F0021F03101ADF1340D00280B91A8
:2053800040F06881687804211BF044F8002840F05F810B99AF7895F83F0001F03F01012F78
:2053A00040EA010085F83F00014600F03B810120A8701FF067FB012805D156201DF0B4FD36
:2053C00008B120F033FAB34C00202071E06808B11FF034F9B04847680023A24680467FB142
:2053E0000C24786800781FF0EDF9061C05D0327C1AB10020824200F31E813F68002FF0D1B3
:2054000018461EF091F8002859D1D8F80470002F55D0786800781FF0D5F9061C4CD0337C8B
:20542000002B49D04FF0000844E074690C2018FB00F94C44E079C00838D3786800788DF80F
:2054400014002088ADF81600A088ADF81800079A089B069905981AF0F1FDB0B90DF1240BE2
:2054600000210422584615F026F874694FF6FF700090CDF804B00A23029302460392CDF826
:2054800010B034F809104C440AE002681189D388009102F10A0001900293039104902188A9
:2054A0007868A288007814F0CBFC337C08F101005FFA80F84345B8DC3F68002FA9D19AF827
:2054C0000200DAF80C20162410FB04F081B2562020F00EF90AF10C060A282BD0092825D073
:2054E0001FF0ACF856201DF01FFDB0FBF4F0C7B238461EF019F801281CD0336814FB07F0FF
:2055000082B2002156201FF0E9FD8AF802700DE041680468CAF814101AF09CFF9AF81000A8
:20552000401E8AF8100020461AF094FFDAF814000028EDD106F016FE1FF080F805F14203E0
:205540005520002101221E461FF0C8FD3078012866D152480078012818BF022843D150486A
:205560000468002120461FF062F900283BD11FF0A5FE002837D120460AA905AA14F05AFF93
:2055800004469DF82400FD282DD002282BD0032C4FF0000715DA05A83946142214F08BFF6D
:2055A000FF202146142205AB8DF8240004201CF07FFC3C49A00000EBC4000F5009184F6028
:2055C0004F7285F8427055200121324620F096F8FF2003211CF058F9687885F8207004217C
:2055E00017F0BEFF53E095F83F000B99072440F0100001F03F0185F82040014385F83F10BB
:2056000000200146FDF784FE10B910F00DFD3EE000201CF0DDFF00212046FFF7B5FC36E070
:2056200095F83F106878002904BF072485F82040F1D00027D1E7716910FB0411C979C9080D
:2056400024BF5B1CDBB2401CC0B2D3E6D04F002095F83F0095F82170CFB9810917D295F82B
:20566000427077B10B9989080BD31EF0D9FF04200121FFF789FC0B9995F83F0081F00201B2
:205680000B910B9901F03F01014385F83F100DB0BDE8F08F645F00201C550020E84E0020DE
:2056A00030510020A04E00202DE9F04FAB4CDFF8B082DFF8B0B2ADF1340D60780591090C4B
:2056C00066D20598800805D30120059FE07087F0020077E10598000938BF0020C0F072814F
:2056E00058462E30A76A00780026B146000922D220F0B8FA05461FF047FFE36A4FF47A712E
:2057000042466843B0FBF1FC92F82510128EACEB0300824238D8B0FBF2F39BB29942ACBFCE
:20572000DDB20D1CB0FBF2F15143401A80B2ACEB0000E06200E00125EFB1C846F878A8421C
:205740000ADD401BC0B2F87040B109F101061FFA86F93E467F680CE087F803807868002E3C
:2057600082460CBFC4F828A0706038461AF072FE5746002FE2D16078B9F1000F04D1002144
:20578000E162082118F052FA059880F0080019E117F0B8FE071C00F01281B87FC0B9788C23
:2057A000A56A132815D1B7F80290281C11D000260188894508D14568002E0CBFA56275607B
:2057C0001AF048FE284601E0064640680028EFD1A56AB87A97F831102E46022855D1788879
:2057E00066B1DFF8E8C13288904204D1B2789CF80030914247D07668002EF4D181468A4671
:205800004646002D08BF002004D0012015B16B68002B34D1718E814237DD082013F0D0F861
:2058200096F82510002830D0A0F8009080F802A0C17000234360A36A83B9A0629BF82E0038
:20584000000911D220F00EFA05461FF09DFE4FF47A716843B0FBF1F0E06200E06860584662
:2058600090F82E00000910D3607808211AF0D2FD58B96078328E082120F035F805E0401C5C
:205880001D4680B2C2E7F37096E0514805683878012806D0022840F08F80384616F062FEEF
:2058A0008AE007F11004B81CBE8908943B7E0690FA7C07967969099397F819B00A923C7F2C
:2058C0000B9107F11C0604F00C000C280DD0B87F4FF0FE09FF2804D01FF060FD041C10D11C
:2058E0006AE0002D68D06C680FE0B088FE211BF0EFFD8146B9F1FE0F5ED01FF04FFD041CC1
:205900005AD020781EF07EFE05464FF6FF7A0BE020781EF077FE054606E0B078FF284BD190
:205920002D68002D48D06C68002C45D0AB68AAF1010823B9A3680BB1B3F8028007E0217871
:205940000220984718B1B0F800801AF083FD3389227898450AD03AB943B11CE02851002042
:20596000E84E0020501A00209A4514D196F80280B27008980090099B01930A9902910B9A0E
:205980000392CDF810B0079B069A3046214611F059FA86F80280307800F00C000C28BCD115
:2059A000B08849461BF094FD8146B9F1FE0F03D01FF0F4FC041CABD138461EF069FA05980C
:2059C00080F400400DB0BDE8F08FC0460D4F002020550020F0B50E467068ADF1140D002863
:2059E00000F08381B068002800F07F810025C14C7268757004F10C00177803783FB1B0687F
:205A000001210170284603B10846B16848707068637B877847B1B06801210171284603B137
:205A20000846B16848717068C7785FB128461FF0DDF8B2680121800B917138BF291CB068B0
:205A4000C171706807793FB3B06801230372B0680C301FF0CBF8B1680882184616F038F9BB
:205A6000B1684861022016F033F9B1688861042016F02EF9B168C861082016F029F9B16812
:205A80000862102016F024F9B1684862202016F01FF9B168886270684779618D37B1B0689F
:205AA000012280F82C20B068C18570688779A18D37B1B068012280F83020B06841867068F9
:205AC000C779E18D37B1B068012280F83420B068C1867068077A61783FB1B068012280F8F5
:205AE0003820B06880F839107068477AA1783FB1B068012280F83A20B06880F83B10706813
:205B0000877AA17A3FB1B068012280F83C20B06880F83D107068C77A21793FB1B0680122AF
:205B200080F83E20B06880F83F107068077B61793FB1B068012280F84020B06880F8411098
:205B40007068477BA1793FB1B068012280F84220B06880F843107068877BE1783FB1B0686E
:205B6000012280F84420B06880F845107068C77B37B3B068012111226B4680F846102946E2
:205B800081201FF0ABFA9DF80000B16881F84700B26892F8471089B112F012FFB1688864F5
:205BA000B268906C002808BF82F8475006D09DF800200DF101011EF0E1FE00E095647068A6
:205BC000007C80B1102012F0FBFEB1680865B168086D40B1012081F84C000B6D10226220D6
:205BE00029461FF07BFA7068616B477C37B1B068012280F85420B06881657068877CE17A08
:205C00003FB1B068012280F85C20B06880F85D107068C77C57B1B068012180F85E103649A6
:205C2000B06808225F301EF0A9FE7068077D67B1B068012180F867101FF02EF90146B068AC
:205C4000082268301EF09AFE7068477D87B152200DF111011DF004FC9DF81170B068012129
:205C600080F8701007B92946B06880F871107068877D3FB1B068012180F87210B06880F85C
:205C800073507068C77DE37957B1B06801212A4680F8741003B10A46B06880F8752070681A
:205CA000077E217A3FB1B068012280F87620B06880F877107068477E5FB1B06801210F4F2F
:205CC00080F87810387800B10D46B06880F879507068807E58B1B068012180F87A1019F093
:205CE000E3FDB16881F87B0001E00220707005B00120F0BDE84E0020A91A0020155500208E
:205D00002DE9F04FBC4C20780D46290CADF13C0D80F05081A90B80F02581690880F013819F
:205D2000A9094DD2B54E3078A90834D23089A90A14D2280904D30120207185F0080057E16F
:205D4000E80A09D315F0CAF8B4F84400012114F0DBFC85F480604BE1002049E1B4F8448082
:205D6000A4F8440006F1080150201BF0EFF83789A34C04266089804505D0874204D0204682
:205D80001EF096FD00E06781761E04F11C04F1D185F400702CE140B9618F01201DF038FBEF
:205DA0002078012117F042FF07E068461FF050FD1FF0F6FB694617F049FB85F0020017E187
:205DC00020211AF027FB20B9E068002808BF012615D01FF047FF06461FF0D6FB4FF47A718B
:205DE0007043B0FBF1F1E068002808BF002004D088428CBF4FF0FF30081A460869D00020EC
:205E000004211EF0A5F9071C63D04FF0000B4FF0FF094FF0060A384604211EF099F90E909A
:205E20003889864204D8801B83B23B8113B14DE0A7F808B0BB7B012B02D17889C0083ED31A
:205E4000002B39D08DF800908DF801904FF0FF308DF802003968086AC97F01AA0CF07AF87A
:205E6000D846012808BF4FF001085FEA08001DD0788A40F08000ADF83200B87B8DF8340019
:205E80007889000908D3BDF8320040F48070ADF83200387B8DF836007B6913B1187BADF8ED
:205EA000140069465A4601A8FEF780FC87F80DA0387B14F085F809E00120787306E087F8AB
:205EC0000DA03868407BB72119F07EFD0E9F002FA1D112F02DFD2378002001211EF038F9C8
:205EE00018B11846202117F03BFB002004211EF02FF9B3B270B1078926781EF029F9E8B9FD
:205F0000BB42AEBF0027FF1ABFB2304627B9202117F026FB00200DE07A0020211FF0E6FCEE
:205F20001FF0A0FE06461FF02FFB4FF47A717043B0FBF1F0E06085F0200059E00289BA422D
:205F4000D8BF171CD9E794F84C000F2807D194F8460020B1012802D000201AF0CBFE85F0CA
:205F6000010045E01FF0FBFC264E8046301D0068074690B157F80C1C207821B94FF40051FB
:205F800016F0B8FB03E04FF4005117F0E9FA304639460022001D1CF05AF840461FF072FE50
:205FA0002FB13846FDF716FF38461DF071FF85F400501DE017F0A6FA071C17D01249083174
:205FC0000A78FF2A0FD03C780B460020944207D0401CC0B2C200D1189A5CFF2AF6D102E024
:205FE00049683846884738461DF052FF85F400400FB0BDE8F08FC046501A0020B4190020AE
:206000000410002034550020087802002DE9F04FADF1440D0B908069007800210DF12A0296
:206020000F909C2016F002FBB54D287830F0010009D1002004211DF037F95FFA80FA9DF87B
:206040002A00504402E001204FF0000A8DF82A000F989DF82A10884280F2DE809DF82A00B8
:206060000F99401AC0B20D900228C4BF02200D901A2110FB01F000B212F0A2FC0E90002854
:2060800000F0CD800F980D9F0E9C0C90002F08BF002074D04FF00008B946012645460C9834
:2060A00082450ADC0F9940468A4504DAA1EB0A01C9B20C9163E00C9561E0411CC9B20C910F
:2060C0001DF006F9071C54D08E480146B0F8440059312080A01C1FF02AFC38886082022382
:2060E000E375FF222276B87A60768DF81C503888ADF81E0007A814F017FAAB46012808BF6E
:20610000B34604F10A00BBF1000F06D104F10A00FF21082214F0CFF902E008A91FF007FC3B
:206120003B797BB93F88002F04BF2575281C04D07448267590F85800401E207602206075EA
:20614000A57515E06F4890F85800401C20763879032804DB26753879032805D106E0022097
:2061600020753879012801D0667500E06575A6751A34B9F1010908F1010890D140460D999E
:2061800081424CDD0D9DDFF87CB104F1020804F10A0702264FF0000A4FF001091A3C2D1A09
:2061A0000C9987206A4616F041FA5849BDF80A0024F81A0F40461FF0BAFB0DF10201384634
:2061C0001FF0B5FBBDF800004D4B6082187830F0010003D16675A675FF2006E084F8159030
:2061E00084F816A09BF85800401E2076E675638A9DF81200002B60760CBF84F814A084F827
:2062000014900C9808F11A081A376D1E00F10100C0B20C90C4D102E000200E900D900B98CA
:20622000417C0D9F0E9D8DF82B10801C16210B9017FB01F0001DC0B28346401C12F0C0FBA8
:206240005FEA000854D008F101040020A2468AF800009DF82A000F9F88F802000D9E88F827
:20626000037088F8046096B30D9F2E46241D06F102090A36204649461FF059FB08343146D0
:2062800020461FF054FB0446A87C04F8010B688A001204F8010B287D2070697D40EA8100F2
:2062A000C0B22070A97D40EA011004F8010BE87D04F8010B287E04F8010B687E09F11A0955
:2062C0001A367F1E05F11A0504F8010BD2D10E4D0B990DF12B0048F231025B462C1DC4F8D6
:2062E00000A015F0D7FF40461AF0B4F809346C600E9808B11AF0AEF811B0BDE8F08FC046E4
:20630000E84E0020501A0020344E0020A91A00202DE9F043B24CB349A064B3480A78E06410
:20632000B248A270891CE063B148A163ADF11C0D606202A81EF0D2FF002002AA01460DF04A
:2063400059F9002102AA606301200DF053F92063406800781CF0E4FF18B9606A80471EF0EF
:206360006DFEA44D206B29461FF0B1FA606B29461FF0ADFA0EF01EF89F49A062012204F107
:206380008C0019F005F9A06A80461CF0B5FF002840F09B80994E3068002800F09680984DD5
:2063A000286B4FF0FF311EF046FFD5F830C000204FF0FF3305F18C0E024671464F6837B904
:2063C0000F6827B9B3F1FF3F08BF131C03E00F68B74277D0401C521C0831042AEEDBB3F156
:2063E000FF3F6FD0D90001EB0E02C2F8048000284EF801605CDDDFF80CC2DFF80C920128C2
:206400000FF23C1823D12B6A61468B611A68D9600A6000230B752F6A0B619E4681F815E0EC
:20642000397A01220C2311FB03710A72397A11FB037181F809E0296A0A7A474612FB031101
:206440004F60296A0A7A4F4612FB0311CF60C6F80CC0317A82004FF00C0E02EBC0020023AF
:2064600011FB0E6762440121397201289661317A13614746137511FB0E614B72317A537529
:2064800011FB0E614F60317A82F821304F4611FB0E614FF00206CF602EA7D7615B4F82F8A5
:2064A0002060664657621ABF307A401C032030722E62EE61307A401E6862002009F016FB78
:2064C000286B00E060461FF05EFAA06A04F10C0225A10CF0D5FB0CF0BFFDA06A04F11002D4
:2064E00026A10CF0CDFBA06A04F1140228A10CF0C7FB0DF009F8A06A04F1180229A10CF098
:20650000BFFBA06A04F11C022BA10CF0B9FBA06A04F120022DA10CF0B3FB68461EF04CFE89
:20652000012069460BF006FCE062002004F076FA002014F071F8A06A07B0BDE8F083C0465C
:206540003C2020202020204241434B2020202020203E00C03C20202020202048454C50202B
:2065600020202020203E00C044657669636520496E666F1B37311B3800C046C02020204E37
:20658000574B20496E666F1B37311B3800C046C02020204E574B20496E666F1B37321B383E
:2065A00000C046C02020205A444F20496E666F1B37311B3800C046C02020204244422049EF
:2065C0006E666F1B37311B3800C046C0202042696E6420496E666F1B37311B3800C046C0D7
:2065E0005018002020190020E61A002059120200A780010011420200F1290200844F0020A1
:206600000C410020F0610020494E0200151B0100F0B50E467068ADF1140D002800F0628147
:20662000002771687770B24C087858B1487800280CBF381C01202246012110730C326320F6
:206640001FF05CF871680D7965B14879224600280CBF381C0120012150730D326D201FF011
:206660004DF871688D79ADB90D7ACDB1088A10F0070F02D0CA68632A12D9C96811F0A8FD90
:206680003846012109F0D6FD9A4A352028211FF035F804E0C9794FF4005009F0CBFD71687D
:2066A0008D7C45B1888A22462A320221108044201FF024F871688D7D45B1088B22462C3291
:2066C0000221108046201FF019F871688D7E45B1888B22462E320221108083201FF00EF861
:2066E00071688D7F45B1C87F2246521C0121107029201FF003F8716891F820504DB191F854
:2067000021002246921C012110702B201EF0F6FF716891F822504DB191F8230022460A3230
:206720000121107043201EF0E9FF716891F824504DB191F825002246121D012110702E2055
:206740001EF0DCFF716891F826504DB191F827002246521D012110702F201EF0CFFF71684D
:2067600091F828504DB191F829002246921D0121107030201EF0C2FF716891F82A504DB1B6
:2067800091F82B002246D21C012110702C201EF0B5FF716891F82C50A5B191F82D20102AFB
:2067A0008DF8002003DD10208DF800000246096B0DF101001EF0E2F8812011216A461EF06B
:2067C0009DFF716891F8345055B191F835001028C8BF10208A6B014662201EF08FFF716851
:2067E00091F83C5045B1086C224634320421106084201EF083FF716891F844504DB191F806
:20680000450022460B32012110704B201EF076FF716891F8465065B104F13805473108221C
:2068200028461EF0ABF8472008212A461EF066FF716891F84F5035B101F150020120082151
:206840001EF05CFF716891F858504DB191F859008DF811000DF1110152201AF077FB716878
:2068600091F85E5045B191F85F00234A0121107033201EF043FF716891F85C502DB391F8DA
:206880005D00E51D01212A46287032201EF036FF3220394601222B461EF020FC04F108034B
:2068A0003320394601221EF019FC1448E1790078012904D04FF4006117F0B8F904E04FF411
:2068C000006164221FF012F8716891F860705FB191F861000A4977680A4D087097F861009B
:2068E000287001E00220707005B00120F0BDC046E84E0020001A0020F04E0020501A00201C
:2069000015550020D81A00202DE9FE4F0D46074628687C68BE6800283AD01FF020F8D4F819
:20692000F81081460120019008294FF0000088BF0198A968084202D16968084205D00198CF
