:20000000003A0120C19D020039FB021039FB021039FB021039FB021039FB021039FB021081
:1C00200039FB021039FB021039FB021039FB021039FB021039FB021011FB021002
:04003C00E1260300B6
:200040000EB5009001208DF8080000980190019880788DF809005FE20198122141703FE377
:200060009DF8090000992FF099F88DF8080037E39DF80900009916F081FA8DF808002FE39B
:200080009DF8090000991FF0F3F98DF8080027E39DF80900009924F017FF8DF808001FE3A7
:2000A0009DF80900009933F061F98DF8080017E39DF80900009926F0D7F98DF808000FE369
:2000C0009DF80900009931F051FD8DF8080007E39DF8090000991CF05FF88DF80800FFE2FB
:2000E0009DF80900009933F04EF98DF80800F7E29DF8090000992AF063FF8DF80800EFE2E8
:200100009DF80900009931F04EFB8DF80800E7E29DF8090000992BF0B0FB8DF80800DFE29D
:200120009DF8090000992FF025FE8DF80800D7E29DF80900009930F0DFFD8DF80800CFE28F
:200140009DF80900009929F067FA8DF80800C7E29DF8090000991EF038FB8DF80800BFE212
:200160009DF80900009920F085FD8DF80800B7E29DF80900009933F03FFB8DF80800AFE2DE
:200180009DF80900009931F0D9FD8DF80800A7E29DF80900009931F097F98DF808009FE225
:2001A0009DF80900009931F002FE8DF8080097E29DF80900009924F0C3FE8DF808008FE2D7
:2001C0009DF80900009923F0D9F98DF8080087E29DF80900009915F0FBFB8DF808007FE2ED
:2001E0009DF80900009911F04DFF8DF8080077E29DF8090000991EF047F88DF808006FE233
:200200009DF80900009931F0BFFD8DF8080067E29DF80900009931F095FC8DF808005FE23D
:200220009DF80900009931F09CFD8DF8080057E29DF80900009933F08CF88DF808004FE26B
:200240009DF80900009900F02BFF8DF8080047E29DF80900009902F097FD8DF808003FE22C
:200260009DF80900009911F09BF88DF8080037E29DF80900009901F095FD8DF808002FE2B5
:200280009DF80900009905F0F7FD8DF8080027E29DF8090000992AF099FD8DF808001FE233
:2002A0009DF80900009929F089F98DF8080017E29DF8090000992CF0E9FB8DF808000FE231
:2002C0009DF8090000990DF04FFB8DF8080007E29DF8090000992EF07DFF8DF80800FFE1EC
:2002E0009DF8090000992EF02CFC8DF80800F7E19DF8090000992CF011FC8DF80800EFE15F
:200300009DF80900009926F079FE8DF80800E7E19DF8090000992BF073FF8DF80800DFE1B3
:200320009DF8090000992CF0D5FB8DF80800D7E19DF80900009925F0F1FB8DF80800CFE1E0
:200340009DF80900009918F0F9F98DF80800C7E19DF8090000991DF03CFD8DF80800BFE18D
:200360009DF8090000991EF035F98DF80800B7E19DF8090000992BF01DFF8DF80800AFE15A
:200380009DF8090000992BF0EFFE8DF80800A7E19DF8090000992BF035F98DF808009FE17C
:2003A0009DF80900009930F003FD8DF8080097E19DF80900009931F071F88DF808008FE123
:2003C0009DF80900009930F0C5FC8DF8080087E19DF80900009932F0AFFF8DF808007FE11C
:2003E0009DF8090000992FF0DFFC8DF8080077E19DF80900009930F0F2FC8DF808006FE1C5
:200400009DF8090000992CF035FD8DF8080067E19DF80900009932F082FF8DF808005FE1DB
:200420009DF8090000991DF0C5FA8DF8080057E19DF8090000991AF0A3F88DF808004FE15B
:200440009DF8090000992FF0AEFD8DF8080047E19DF8090000992FF08DFD8DF808003FE159
:200460009DF8090000992AF0DBFC8DF8080037E19DF8090000992EF075FE8DF808002FE14A
:200480009DF80900009930F0DDFF8DF8080027E19DF80900009930F0EBFF8DF808001FE1C6
:2004A0009DF80900009930F04BFA8DF8080017E19DF8090000992FF08FFD8DF808000FE1BC
:2004C0009DF80900009930F02EFC8DF8080007E19DF80900009930F09FFF8DF80800FFE0C5
:2004E0009DF80900009930F04CFC8DF80800F7E09DF80900009932F005FF8DF80800EFE040
:200500009DF80900009931F099FF8DF80800E7E0019812214170E3E001980078432836DCC9
:2005200043283FF425AF28281BDC28283FF4E0AE00283FF495AD801E3FF4DAAD401E3FF46B
:200540007FAE401E3FF484AEC01E3FF4E1AD401E3FF486AE401E3FF4B3ADC01F122847D91D
:20056000D6E72A383FF4D4AE401E3FF4D9AE401E3FF4C6AE0E383FF4DBAE401E3FF4E0AE69
:20058000401E3FF4E5AE401F3FF4EAAEC0E7CE2819DCCE289CD045383FF4F2AE001F3FF477
:2005A0005BAD401E3FF47CAE401E3FF481AE401E3FF48EAE401E3FF493AE5338242841D928
:2005C0002D3895D0A4E7D7383FF45AAF401E3FF45FAF133894D00E383FF422AE401E3FF453
:2005E0000FAE401E3FF414AE401E3FF421AE8FE701A151F82000874601010000D10000006A
:20060000B100000059000000710200001105000011050000110500002101000031010000C7
:20062000110500004101000051010000110500006101000071010000810200009102000010
:20064000C102000001A151F820008746C1010000B101000091010000A1010000D101000085
:20066000E1010000F101000081010000E1000000A10000007100000081000000910000001F
:2006800091030000E103000001040000A1030000B1030000C1030000D1030000F1030000F9
:2006A00011040000210400003104000041040000510400006104000071040000A1040000B2
:2006C000110500001105000011050000B1040000C10400001105000011050000E10400004D
:2006E0009DF808000EBD70472DE9F04F8E4D08352968B83108688D4C0078ADF11C0D20B993
:20070000207810B1D1F89404804730F071F88127FF23884E8649277000223370864C0860CA
:200720002778A2811046A369A7702A68197A891E1FFA81F8D2F80011C34EC98930704145BC
:20074000C0F24082E2690832126804F114010A60A189E07D637DA27DA8F1030604F1150B75
:200760001FFA86F8091D89B220718C46A18103EB02212B686181B83318689BF8016002789D
:20078000C6F3011A002A08BFBAF1020F00F01A82BAF1020F00F316821AB111F0070F00F033
:2007A0001182607801F00706B61E022E08BF002800F00882DFF8289332B14A461278862A24
:2007C00002D1002E40F0FE81091301F0020102294BDA064340D1D86990F88300022838D031
:2007E000E069604408300146097805AA17463970A089401CA08134F088F806464A461078A9
:20080000862823D1296840310868006810B9D1F80C0580472D689DF91400002134F0B7F8BF
:20082000296C09684877286C006800278777296C9DF9143009683046CB7734F007FA61892B
:20084000207901F010012BF043FC02E0304634F0FDF932F03BFCB7E14A461178862904D1A3
:2008600000202FF01FFAA77860788FB180B9012F00F0A8816089022F03D110F0070F40F033
:20088000A181032F05D100F00701032901D099E16089010980F09681011301F00201022912
:2008A00002DA810A80F08E819BF80110C1F381098E11B9F1010F00F08581012E00F08281FF
:2008C000BAF1020F13DA00F00701012918BF03290DD1B9F1000F0AD1002E00F0738112496B
:2008E0008968AC3109680F78002F00F06B81BD49BAF1020F09D08A5D11F809108918CFB261
:2009000006B3C1091ED3BF1E0BE072184944127909798918CFB2C10910D259EA060311D07C
:20092000BF1CFFB20EE0C0460C010020336F0020046F0020F50C0020DC68002059EA0603E4
:2009400008BF0227C0F30020391A60718845C0F239812B68A8EB0701091888B2D3F85012C1
:200960002081743080B288470028206100F02A810021742223F027FF0020E07063786089C9
:200980001BB9314A00F0200111702F4963790A784FF0000C3AB333BB00F00701032907D07F
:2009A000012920D12968D1F8D41091F88220D2B168684069007818B133F052F9FE280DD005
:2009C0002868D0F84C02804740B92868D0F844028047002808BF94F803C002D00420E070C8
:2009E00084466089637925699BF8018005F1740105F174026960C8F3011A2189AA65002B6C
:200A000029812189A8819BF80020A5F85C1002F078004AEA00004CEA000028744FF0FF01EE
:200A2000A9730CBF2079002085F8306085F83A9085F84900A089002FA0EB030080B2A081C3
:200A400000F0BD8002E0C046356F0020E169E7803A460918684608311FF090FAA0894FEA89
:200A6000A802C019DFF88081A0812846017C12F0030F02F003076D4601F0400941D0BAF156
:200A8000020F4FF0000301D1C9090BD29DF801209DF8001001EB0221A0F844100DF1020527
:200AA000A0F842104646B0F84410F2898A4203D04FF6FF728A4222D1032F13D06A7829789D
:200AC00001EB022189B24186B289AD1C01208A4214D04FF6FF728A4218BF181C0EE0C046AF
:200AE000386F002020692946323033F0C6FA2069F61C314632302CF057FD08350346002B5D
:200B000058D09BF8010086111ED02169BAF1020F03D0087CC00903D309E059EA070306D14B
:200B20006A782878AD1C00EB0220A1F84200032E05D068782A7802EB00220A8504E02069EF
:200B40002946283033F099FA28498968AC310A68608916788EB1BAF1020F0EDA00F0070214
:200B6000012A18BF032A0CD1226937B9B2F8422046460E36338893421CD100F00702032A6F
:200B800005D0012A1BD1886A90F88200B8B1D1F89C112069884790B900209BF802709BF835
:200BA00001602569E070C7F3011106F078000843287404E010F093FE26F0DCF804E00EF094
:200BC000D3F801E032F03CFE33F09FFEE1690A68002313710968E16134F038F807B0BDE887
:200BE000F08FC046AC6D0300B80D00200C0100202DE9FC47D44C0F460546F80B80F006822E
:200C00006078DFF85883B90F80F0AA81B90880F09D81F90A80F00281390B80F0CC80380961
:200C200007D2F80FC0F0288227F0804726F036F822E233F06AFE814631F0E2FC002800F0EB
:200C4000B480082033F05AFC002840F0AE80802033F054FC002840F0A88068461FF0C2FA2D
:200C6000012803D10098002800F09F8094F84102002840F09A8000250126E8B233F072F8F4
:200C800048B1837A3BB1867290F9090006FA00F0C0B22EF0CBFD6D1C032DEED3032084F887
:200CA000200004F5CC7033F02AFE484633F0CEFFD34800252A460168056050F8081CD14912
:200CC00040F8085C04F15C0031F0FAFB40460068006B8047A168401A010BA06AC1F1FF3295
:200CE00082422CBF08444FF0FF30A06294F82C0020B12069A16AB1EBC02F25D931F090FC36
:200D0000294600B13146081C1BD0BF4840F6090101804580417B06F00F0221F00F010A436F
:200D20004273017B05F00F0321F00F0143EA010202732946416033F043FA418811F4406FC8
:200D4000FBD084F82C60A5622BF060FCCE4829460560022031F0E2F802202FF0B1FB11201D
:200D60001AF01AFF207818B96068483033F0E3FDC648007810B90E201AF00EFF94F82D0057
:200D800020B184F82D5005202FF09AFBC048606284F82050B4F9B000B4F9B210884214BF91
:200DA0000220072022F050F802E0484633F04EFF27F008073AE720B104202FF081FB0020B9
:200DC000607065682DF012FF38B12846ED696FF4807100224FF00073A847E06858B14046AD
:200DE0000068006B8047E2686168801AC860000BC8600026E660A74904F15C00002231F061
:200E00005FFB0221D4F89C0084F8201018B104F1DC0033F098FD27F4006707E733F075FDEA
:200E2000064631F0EDFBD4F894100028894600F08480002900F081809749042504F15C008E
:200E4000002284F8205031F03BFB304633F0FEFE04F5CC7033F053FD40460068006B8047D0
:200E6000E0604FF0010884F8018028462FF040FBD9F810006060D9F81000416AC90803D351
:200E8000036A294600229847404627F06FFE606880F8158060681BF03DFA6568D5F808A04A
:200EA00040F60A02D01F564600F1010C00E01E46736833B119888A4203D0884218BF8C45B2
:200EC000F5D100217160727B08F00F0322F00F0213437373D9F80C201288904224D0604601
:200EE000904221D02B8E03B3696305F13002518095F83C0001F00F0320F00F00034385F84D
:200F00003C3095F83D0008F00F0320F00F00034385F83D307260707B01F00F0520F00F0061
:200F200045EA0001717300E0E160504633F048F95146404630F0F2FF02E0304633F086FE55
:200F400027F4806798E0C0462001002010F0D4F8D4F89C0008B927F002078DE08C010010B1
:200F60004E4A116841F08001116020B104202FF0A7FA0020607033F0C8FC8246D8F85400C5
:200F8000016804208847D0B1287DC0B1A068B0B18146D8F800002E69006B8047A0EB090001
:200FA0002861000B2861B04202D280194008286140F6C41181422CBFB0F5967F2961504651
:200FC00033F044FE2DF012FE80B1EE6928466FF4807100224FF00073B047D4F894000028E2
:200FE00008BF47F0020701D025F058FE2846AD6900214FF080630A46A84727F000573BE01F
:201000001410044039930200DC6C002033F07DFCD4F8AC6066B306F1280106C90A234FF04A
:20102000E0450B40154008BF002B21D106F1280191E8000306F1280595E8060006F12803A2
:2010400022EA090221EA080183E8060033F0FEFDB16879B1B9F1000F08BFB8F1000F09D082
:201060003069B6F93010B5684B464246A84701E033F0ECFD27F4804727B104F1DC003946CC
:2010800033F061FCBDE8FC8700000460326D03005D850100C96F0100E1250300CC21084048
:2010A00000B5ADF1240D00918DF808000098019001984068002800F02182019880680028C0
:2010C00000F01C8201980021417001984068007858B101988068012101709B4800780021C5
:2010E00000B1012101988068417001984068807858B101988068012101719448007800211F
:2011000000B1012101988068417101984068C078A8B1002031F0CCFFADF80C0001988068B9
:2011200001218171BDF80C00800B04D3019880680121C17103E0019880680021C171019853
:2011400040680079002832D00198806801210172019880680C3031F0ABFF01998968088291
:201160007B48007818BB012025F0DCFE019989684861022025F0D6FE01998968886104207A
:2011800025F0D0FE01998968C861082025F0CAFE019989680862102025F0C4FE019989682C
:2011A0004862202025F0BEFE01998968886201984068407948B101988068012180F82C10B5
:2011C0009E48019900888968C88501984068807948B101988068012180F8301098480199C1
:2011E00000888968488601984068C07948B101988068012180F834109248019900888968E9
:20120000C88601984068007A50B101988068012180F838108C4801990078896881F83900D8
:2012200001984068407A50B101988068012180F83A10B14801990078896881F83B00019804
:201240004068807A50B101988068012180F83C10AD4801990078896881F83D000198406895
:20126000C07A50B101988068012180F83E10A74801990078896881F83F0001984068007B64
:2012800050B101988068012180F84010A04801990078896881F8410001984068407B50B140
:2012A00001988068012180F842109A4801990078896881F8430001984068807B50B101984A
:2012C0008068012180F84410934801990078896881F8450001984068C07B00283ED0019851
:2012E0008068012180F84610112203AB002181202FF0EBFC01989DF80C10806880F847106C
:201300000198806890F8470020B39DF80C0033F0D7F801998968886401988068806C48B13A
:20132000019880689DF80C20806C0DF10D012DF069F813E001988068002180F847100198F8
:2013400080680021816409E0760D00203D6F0020640D0020019880680021816401984068EE
:20136000007CB0B1102033F0ABF801998968086501988068006D60B101988068012180F888
:201380004C1001988068036D1022002162202FF09CFC01984068407C48B1019880680121DB
:2013A00080F854105D48019900688968886501984068807C50B101988068012180F85C1007
:2013C000574801990078896881F85D0001984068C07C58B101988068012180F85E100198ED
:2013E0005049806808225F302DF00CF801984068007D68B101988068012180F8671032F007
:2014000039FC014601988068082268302CF0FAFF01984068407DF0B1522003A92DF08EFC94
:2014200001988068012180F870109DF80C0068B101988068012180F871100CE0660D00203C
:201440006A0D00207C0D0020410D002001988068002180F8711001984068807D48B1019873
:201460008068012180F8721001988068002180F8731001984068C07D68B101988068012191
:2014800080F8741028480078002100B101210198806880F8751001984068007E50B101989D
:2014A0008068012180F87610204801990078896881F8770001984068407E68B10198806830
:2014C000012180F878101A480078002100B101210198806880F8791001984068807E80B12A
:2014E00001988068012180F87A1026F007FF0199896881F87B0004E0490D00200198022196
:201500004170012009B000BD650D0020500D0020510D0020520D00204F0D0020440D00208A
:201520006D0D0020B1090020530D0020540D0020BA13002000B5ADF12C0D02930192009104
:201540008DF80C0000208DF80D00CEE1029800788DF81000009800788DF81100019800783B
:201560008DF812009DF810109DF8120088420EDC9DF812109DF81000401A9DF81110814295
:2015800001DC012000E000208DF80D00F4E19DF810109DF81200401A9DF81110814201DCDA
:2015A000012000E000208DF80D00E5E102980088ADF8100000980088ADF8120001980088E3
:2015C000ADF81400BDF81010BDF8140088420EDCBDF81410BDF81000401ABDF8121081426E
:2015E00001DC012000E000208DF80D00C4E1BDF81010BDF81400401ABDF81210814201DC47
:20160000012000E000208DF80D00B5E1029800680490009800680590019800680690049922
:20162000069888420BD806990498401A0599814201D8012000E000208DF80D009CE10499C3
:201640000698401A0599814201D8012000E000208DF80D0090E1029800680490009800689E
:2016600005900198006806900499069888420BD806990498401A0599814201D8012000E086
:2016800000208DF80D0077E104990698401A0599814201D8012000E000208DF80D006BE172
:2016A000029890F900008DF81000009890F900008DF81100019890F900008DF812009DF96C
:2016C00010109DF9120088420EDC9DF912109DF91000401A9DF91110814201DC012000E07E
:2016E00000208DF80D0047E19DF910109DF91200401A9DF91110814201DC012000E00020E0
:201700008DF80D0038E102980088ADF8100000980088ADF8120001980088ADF81400BDF9E0
:201720001010BDF9140088420EDCBDF91410BDF91000401ABDF91210814201DC012000E098
:2017400000208DF80D0017E1BDF91010BDF91400401ABDF91210814201DC012000E000204C
:201760008DF80D0008E10298006804900098006805900198006806900499069888420BDC40
:2017800006990498401A0599814201DC012000E000208DF80D00EFE004990698401A0599C1
:2017A000814201DC012000E000208DF80D00E3E002980068049000980068059001980068E7
:2017C00006900499069888420BDC06990498401A0599814201DC012000E000208DF80D0001
:2017E000CAE004990698401A0599814201DC012000E000208DF80D00BEE002980068049085
:201800000098006805900198006806909DED060ADDED040AF4EEC00AF1EE10FA12DB9DED1E
:20182000060ADDED040A70EEC00A9DED050AF4EEC00AF1EE10FA01DB012000E000208DF8E8
:201840000D0099E09DED040ADDED060A70EEC00A9DED050AF4EEC00AF1EE10FA01DB01203D
:2018600000E000208DF80D0086E0029803C804AA82E80300009803C806AA82E803000198D7
:2018800003C808AA82E8030008AA0CCA04A803C821F04BF910D804A803C808AA0CCA0AF029
:2018A00067F906AA0CCA21F040F901D8012000E000208DF80D005FE008A803C804AA0CCA2E
:2018C0000AF056F906AA0CCA21F02FF901D8012000E000208DF80D004EE000208DF80D0094
:2018E0004AE000208DF80D0046E09DF80C0020381A2806D9C038F0D0401EEED0401EECD0DE
:20190000EFE702A151F820008746C0464D150000AD1500000D16000057160000DB1800006B
:20192000DB180000DB180000DB180000A11600000717000067170000B1170000DB180000C0
:20194000DB180000DB180000DB180000E3180000E3180000E3180000E3180000E3180000C7
:20196000E3180000E3180000E3180000DB180000FB1700006B1800009DF80D000BB000BDD4
:2019800000B5ADF1140D8DF809108DF80800C0E1B7480078012804D0B5480078022840F0C4
:2019A000D181B44800780421322230F0F2FC9DF8090080B1BE4901200870BE4800680028D5
:2019C00000F0D081BB48006828F076F9B94800680028F7D1C6E100208DF80C00B649022002
:2019E000087001208DF80500B14900200870B349087820F002000870522003A929F0C2FC37
:201A000032F020FB2FF0A0FA00202EF0B9FDA9480068002800F09681A648006828F04CF9A1
:201A2000A44800680028F7D18CE191480078012804D08F480078022840F084819DF809005B
:201A4000D0B10020032126F0E9FD994904200870884800783222042130F09BFC0820002186
:201A60000FF0F0FDC04900200870824800784FF480511FF0BFFF75E101208DF805008E49DE
:201A8000072008707B4800784FF480511FF0B2FF00202BF0DFFC89490020087075480078E3
:201AA00041F28832022130F074FC4BE101208DF805009DF8090070B17F4900200870AC489C
:201AC000AA4900880880A94A8320022131F068F806202EF055FD76490020087065480078B7
:201AE0003222042130F055FC7449087820F00200087027E102208DF805009DF8090080B1B2
:201B00006D49002008709A48984900880880974A8320022131F044F80020032126F07EFDCB
:201B200002E0654908200870614900200870514800783222042130F02CFC6049087820F028
:201B400004000870FEE003208DF805005A48007810B988490120087087480078002840F092
:201B60000181864800682EF0E3FD002840F0FA80404800784FF4804128F00AFE002840F061
:201B8000F1807F49002008607E49002008607B482CF0CBFA374800784FF480411FF02AFF5E
:201BA0007448007830B1444800780B2802D14249002008706F49002008703D480078062868
:201BC00009D13B49002008702A4800783222042130F0DFFB06E06C480078062802D16A49EC
:201BE000002008703549087820F008000870A9E0002032F075F965490120087004208DF896
:201C000005009DF8090040B12B49002008702B490020087006202EF0B3FC2549002008701F
:201C2000144800783222042130F0B3FB2349087820F00100087085E000208DF805009DF870
:201C40000900C8B1082000210FF0FCFC04202EF097FC18F039FE18490D200870144900202B
:201C6000087004480078C822042130F092FB18E07E0D0020266F002032F088FC70B1052028
:201C80008DF805000D49087840F020000870082000210FF0D7FC0A202EF072FC06490220DA
:201CA00008700649087820F0100008704AE0C046F06E0020580E00206212002063120020E8
:201CC00005208DF805009DF80900C8B12E483149007808702C490020087042F208000021F4
:201CE0000FF0B0FC2D49087820F0200008702A490D20087004202EF043FC25F067FD21E088
:201D00002649087840F02000087023490220087018E09DF80800401E072813D801A151F80E
:201D2000200087462B1A0000F11B000091190000AD1A0000F51A0000471B0000391C00002E
:201D4000C11C00001248006860B1134800788DF8040001A80090124800780A2100220323F9
:201D600024F0D2FF05B000BDF16E00207C0D00209C090020610E00203C0E0020480E0020B0
:201D80004C0E0020500E0020F36E0020630D0020640E0020F06E0020621200206312002001
:201DA000266F002000B5ADF1140D00918DF808000098019001984068002800F0F38101984D
:201DC000002141709DF808002DF01AFE03900398D0B91C2032F074FB03900398A0B10398C1
:201DE00000211C2222F0EFFC9DF8080003990871039828F019FF38B9039832F05BFB0020E6
:201E000003900198D12141700398002800F0CD8101984068007870B101984068407828B146
:201E20000399C88840F00100C88004E00399C88820F00100C88001984068807870B1019821
:201E40004068C07828B10399C88840F00200C88004E00399C88820F00200C88001984068F8
:201E6000007970B101984068407928B10399C88840F00400C88004E00399C88820F00400A9
:201E8000C88001984068807970B101984068C07928B10399C88840F00800C88004E0039960
:201EA000C88820F00800C88001984068007A70B101984068407A28B10399C88840F0100096
:201EC000C88004E00399C88820F01000C88001984068807A70B101984068C07A28B1039936
:201EE000C88840F02000C88004E00399C88820F02000C88001984068007B70B10198406894
:201F0000407B28B10399C88840F04000C88004E00399C88820F04000C88001984068807BE5
:201F200070B101984068C07B28B10399886840F00100886004E00399886820F0010088601D
:201F400001984068007C70B101984068407C28B10399886840F00200886004E003998868B7
:201F600020F00200886001984068807C70B101984068C07C28B10399886840F0040088600B
:201F800004E00399886820F00400886001984068807D70B101984068C07D28B10399886893
:201FA00040F01000886004E00399886820F01000886001984068007E70B101984068407EA2
:201FC00028B10399886840F02000886004E00399886820F02000886001984068807E70B17C
:201FE00001984068C07E28B10399886840F04000886004E00399886820F040008860019864
:20200000406890F8220078B10198406890F8230028B10399886840F48060886004E0039978
:20202000886820F4806088600198406890F8260078B10198406890F8270028B10399886867
:2020400040F40050886004E00399886820F4005088600198406890F8280078B101984068FD
:2020600090F8290028B10399886840F48040886004E00399886820F4804088600198406801
:2020800090F82A0078B10198406890F82B0028B10399886840F40040886004E00399886840
:2020A00020F4004088600198406890F8340078B10198406890F8350028B10399886840F427
:2020C0008010886004E00399886820F4801088600198406890F8380078B10198406890F899
:2020E000390028B10399886840F48000886004E00399886820F4800088600198406890F8F1
:202100003C0078B10198406890F83D0028B10399886840F08070886004E00399886820F067
:20212000807088600198406890F83E0078B10198406890F83F0028B10399886840F000708A
:20214000886004E00399886820F0007088600198406890F8400078B10198406890F8410083
:2021600028B10399886840F00060886004E00399886820F0006088600198406890F84200AF
:2021800098B10198406890F8430028B10399886840F08050886008E00399886820F0805049
:2021A000886002E0019802214170012005B000BD00B5ADF14C0D0A9001208DF83900002010
:2021C0008DF83A000A98808C032801DA0120E8E10A98974908600A980490002009900020A9
:2021E00007900020ADF820000A98816A05A819F071FC07900A98808CADF820000A98816A1C
:202200000798401A81B2BDF82000401AADF820000A98007D30F04CFC0B900B9820B9844933
:20222000002008600220BCE10B98806880B10B98806840880A9900900A989DF814209DF815
:202240001B308988007D02F0030225F0FBFC20B97749002008600320A3E100208DF83800FD
:202260000A990A988988007D2EF0E7FD8DF836000B990A988968808849882AF003FD0C9008
:202280000C9800285DD09DF8140010F0030F08D19DF814008010400803D29DF81B000B2878
:2022A0004FD09DF83600C00901D3012000E000208DF837009DF83700012842D10A98407E52
:2022C00000283ED10498407D002835D104984088002831D10A980A99007D898800222BF0A2
:2022E00081FF9DF839008DF835009DF81B008DF834009DF8142000210020D210520800D354
:20230000012000B90121009101200190BDF8180002909DF81A000390049A049804999288EC
:20232000007D0DAB891D27F05DFA0A980A99007D898801222BF056FF3D49002008600520BB
:202340002FE19DF83800002840F0B1809DF8140010F0030F40F0AB809DF814008010400880
:2023600003D384208DF83900CBE09DF81B00162800F399809DF81B008B4951F8300000285B
:2023800000F091800A98007D8DF84000BDF82000ADF842000798119083499DF81B0051F897
:2023A000301010A888470990099878B19DF81B007E4951F8300048B19DF81B007B4951F84D
:2023C000301004A88847002834D133E00998002830D10498407D28BB0498408810BB80202D
:2023E0008DF835009DF81B008DF834009DF8142000210020D210520800D3012000B90121A5
:20240000009101200190BDF8180002909DF81A000390049A049804999288007D0DAB891D0C
:2024200027F0E0F90249002008600120B9E0C046E0110020099810B1099831F069FF9DF8E7
:202440001B0038B39DF81B00022823D09DF81B0003281FD09DF81B0005281BD09DF81B0067
:20246000062817D09DF81B00082813D09DF81B000C280FD09DF81B0011280BD09DF81B004D
:20248000132807D09DF81B00152803D09DF81B000B2804D1464900200860002081E00020FA
:2024A0008DF839002DE082208DF8390029E00C98B8B10C988068A0B10C98816804A88847F6
:2024C0008DF839009DF83900FF2805D09DF8380038B19DF8390020B93549002008600020F1
:2024E0005FE09DF8390001280BD19DF814008010400803D383208DF8390002E081208DF80A
:2025000039000498407D002832D10498408800282ED19DF814000011400802D39DF83900CE
:2025200030B39DF839008DF835009DF81B008DF834009DF8142000210020D210520800D3AE
:20254000012000B90121009101200190BDF8180002909DF81A000390049A049804999288AA
:20256000007D0DAB891D27F03DF901208DF83A000F49002008609DF8390008B9002010E0D4
:202580009DF83900842806D19DF83A0008B1072007E0062005E09DF83A0008B1092000E0B8
:2025A000082013B000BDC046785D03007C5D0300E01100202DE9F04FD64CDFF85C93DFF894
:2025C0005CA3DFF85C83080CADF1140D019180F0DA810846400838BF0020C0F0DF8167688A
:2025E00032F030FB054631F023FF4FF47A764FF6FF726843B0FBF6F081B267B13B887888CD
:20260000CB1A9BB2984210DDC01A8242C8BF82B2FF68002FF2D14FF6FF70904200F0998080
:20262000207801212FF0B5FE93E0B879022800F0838032F007FB054631F0FAFE97F83810EE
:202640004B466843B0FBF6F03880187888426BDD97F83600FF2808D197F83800401C87F8EC
:20266000380097F8370087F8360097F8356097F839300020012101E0401CC0B283420FDDE9
:2026800097F8365001FA00F285F0FF052A42F3D03618814097F83600F6B2014387F836100B
:2026A00097F83400B98F10FB06F2891A89B28842C7BFFF2087F83600011C97F83600524690
:2026C0001278FF2818BF97F83A0006D140460078642510FB02F212FB05F0788046B9388D8E
:2026E0003D7A40F020003885386C87F82E500BE03A8D4FF6DF70104038853D6C87F82E606C
:2027000097F8342012FB06507862F879CDB287F82D00A1687D8411B130468847A8B907F193
:20272000100007F027FF10E0B87E97F82A10FA8BE92325F088FB05E0387CFF2802D0B869A1
:202740002EF0DDFF38462DF0C3FC207801211CF085F9019880F0010020E198F8000001281D
:2027600040F00E8100216B4E029198F8330098F813A0D8F81470B16808F11C0408F1020B9B
:2027800008F11009054619B18847002840F0F880607DBBF8001002222EF07EFB061C75D1B0
:2027A0006078400870D3A078CDF80CA030F080F9BA46071C5DD01C2031F082FE061C5AD01B
:2027C00000211C2221F0FFFFA07869462DF0A0FB9DF801000221307530462FF00FF8BBF85F
:2027E0000000317DB080607DFF22F07102FA01F07074786800783074207DB074E17D11FBA4
:2028000000F0303080B22AF012FF0746B76127B930462DF05DFC00262DE01A2038700023A2
:202820007B701A467A80E0885946B880B81D2DF037FFE0783A4BF87303F12000008838824E
:20284000608BB88560897882A0783875207B787599F80000B87599F80100F87599F90200CF
:202860003876039A7A76C7F81CA007F13001B96201E00020064627480078002E00F080800C
:20288000357201211CF0EAF8002E79D0307A281AB0F1FF3F04BF01200290307CFF285BD0CB
:2028A0006078400828BF0025317DF07C4018A84203DCF074FF2088407074B069B17C227D9D
:2028C000806A05FB010021692BF09CFD029F317D727C012395FBF1F04843281A03FA00F142
:2028E0001143C9B27174EFB1401CFF2202FA00F001437174B769B17C207D05FB0100B884CB
:20290000707CFF280ED1307CB16920F05BFAFF20307421E05C130020650D0020680D002020
:202920007C09002032F08EF9074631F081FD1D4A1D4B4FF47A717843B0FBF1F01B4F3080FF
:202940001178187811FB00F138786422401C10FB01F010FB02F07080F07C317D2D1A6D1AFE
:20296000B5F1FF3F04D0717CFF2901D0029F3FB1E075707C2076BBF8000021461EF0A1FA8E
:2029800040462EF0BCFE0A4800781FF079F85FEA00087FF4E2AE019880F4004005B0BDE894
:2029A000F08FC0467C090020680D0020650D00205C1300202DE9F0470446B5480078ADF18D
:2029C000400D78B92089002807BF30200021102001210EF037FE00200FA98DF83C005220E1
:2029E00028F0D0FC6068217A01AA12F0ADFC002800F0BC819DF806000228B4BF012700275E
:202A00009DF808000228A8BF0027BDF80E004FF6F87981450BD009F10101814207D009F1B7
:202A20000201814203D009F10301814200D1002731F010FD9DF80710884240F09781002F29
:202A400000F094819DF83500002840F08F81208D9DF80A60678EADF83000ADF8127056B19B
:202A600061689DF805209DF82030012031F098F9002840F079819DF80900DFF8FCA200288E
:202A800042D19DF82100002650BBBDF80E002AF013FF022808BF01265146BDF80E0009884A
:202AA000814208BF46F002063EB19DF8061000290CBF46F0200646F040062AF0FDFE0128AA
:202AC00008BF46F001069DF80600002834D00B98007831F054FA012818BF26F001062BE079
:202AE0009DF82510002918BFFF2907D15046BDF80E100088884208BF22261DE09DF824008C
:202B00000A9A2AF059FF17E0BDF80E10FF202EF065FF002804BF9DF80900082606D09DF812
:202B200009002C2640F001008DF8090000F00300012808BF46F011069DF80A0090B98F488C
:202B4000007878B106F0220022280BD00B9A06F04200422840F008811078062803D00728DF
:202B600001D001E10B9AF0094FEAA61824D311780846C01E012811D9001F0FD0C01E0DD095
:202B8000801E0BD05046BDF80E200088904240F0ED80BDF810002CF06AFCE7E05FEA58009D
:202BA0000AD3032902D150780D2805D001A82CF043FC012800F0DD80B4F8441050460E3019
:202BC0000088884208D100230093208DB4F8421094F8462017F0EEF99DF80A00684D00280D
:202BE0006ED0208DB4F8421031F02AFB071C51D19DF8350000283AD195F88C0001285FD1F2
:202C00000B980078062802D15FEA580058D2BDF8121009F10700884200F0AB805949BDF8B9
:202C20000E00097811B1E98E81421DD000211CF099FE80B18079BDF81020BDF80E1010F076
:202C4000180F0CD0608E00901046238D9DF8212028F0D0FA8DE0BDF80E10BDF810201046BA
:202C6000002224F047FC84E027F010FE81E004202AF0DDFC0146287800297AD064220A7080
:202C800001274F70228D4A8020F09CF871E0C046640D00209DF8051060680A18537BFA7874
:202CA000934203D0FB7000207860606840180421401C1CF0CCFC796881425AD8401C78608A
:202CC00095F84600042818BF092852D19DF81610B00927D20B985FEA58014AD30178042955
:202CE00003D19DF82010022917D00078072803D19DF8201004290CD0032805D00C2838D1A3
:202D000001A81CF085F934E001A8002128F04AFA2FE001A821F0BCFE2BE0002001A918F0E6
:202D20008DFC26E094F8460094F847708DF8380094F948608DF8397001298DF83A600DD1A8
:202D4000208DBDF81010884208D1BDF80E002AF0B3FD022804BF00208DF81600E26B01A823
:202D60000EA904F029F904E0CF2000E0D32031F0DDFB10B0BDE8F0878E09002083090020A8
:202D800058090020530D002000B5ADF1240D00918DF808000098019001984068002800F00E
:202DA000A78101980021417001984068007878B101984068407818B115490120087002E003
:202DC000134900200870124A632001212FF0E8FE01984068007978B101984068407918B153
:202DE0000C490120087002E00A4900200870094A6D2001212FF0D4FE01984068807958B1E2
:202E000001984068C1794FF400500EF01BFC23E0760D00203D6F002001984068007AD8B1D9
:202E200001984068008A10F0070F04D001984068C068642810D30198019940684968008AEF
:202E4000C9681BF001FF002001210EF0FBFBAB4A352028212FF0A4FE01984068807C48B176
:202E600001984068A649808A0880A54A442002212FF096FE01984068807D48B101984068EF
:202E8000A049008B08809F4A462002212FF088FE01984068807E48B1019840689A49808BB8
:202EA0000880994A832002212FF07AFE01984068807F48B1019840689449C07F0870934A5F
:202EC000292001212FF06CFE0198406890F8200050B1019840688E4990F8210008708C4A05
:202EE0002B2001212FF05CFE0198406890F8220050B101984068874990F823000870854AFD
:202F0000432001212FF04CFE0198406890F8240050B101984068804990F8250008707E4ADE
:202F20002E2001212FF03CFE0198406890F8260050B101984068794990F827000870774AED
:202F40002F2001212FF02CFE0198406890F8280050B101984068724990F829000870704AE6
:202F6000302001212FF01CFE0198406890F82A0050B1019840686B4990F82B000870694ADF
:202F80002C2001212FF00CFE0198406890F82C00D0B10198406890F82D008DF80C009DF808
:202FA0000C00102802DD10208DF80C00019840689DF80C20016B0DF10D002BF023FA8120DB
:202FC000112103AA2FF0ECFD0198406890F8340088B10198406890F8350003900398102870
:202FE00001DD1020039001984068BDF80C10826B62202FF0D5FD0198406890F83C0048B1C0
:20300000019840684849006C0860474A842004212FF0C6FD0198406890F8440050B1019827
:203020004068424990F845000870404A4B2001212FF0B6FD0198406890F8460058B101987E
:2030400041683B48082247312BF0DCF9384A472008212FF0A5FD0198406890F84F0030B1E6
:20306000019842680821012050322FF099FD0198406890F8580048B10198406890F8590050
:203080008DF80C0003A9522028F07CF90198406890F85E0050B101984068264990F85F0035
:2030A0000870244A332001212FF07AFD0198406890F85C0060B1019840681F4990F85D005B
:2030C00008701D4A322001212FF06AFD28F0ECFD0198406890F8600068B101984068174933
:2030E00090F861000870154815490078087002E0019802214170012009B000BDB80A0020FC
:20310000660D00206A0D00207C0D0020410D0020490D0020650D0020500D0020510D00206B
:20312000520D00204F0D0020440D00206D0D002094140020540D0020530D0020BA130020D3
:20314000E009002010B5ADF1380D019200918DF83200002102220DF12E0021F034FB9DF89D
:2031600032008DF82E001CE1C248C34912222BF049F9C24900200880019801210180BF48D0
:203180000199B0F90000401C4880BA48BC490860BC4910200870BC4901200870BB490020EA
:2031A000087014E1B5480199B0F90000401C4880B7480199B0F90000401C088007E1B24836
:2031C000007818B1B1480078401C01E0AF48007800EBD07121F00101401A80008DF83300C0
:2031E000A948007828B1A948007800EBD070401008E0A648007800EBD071A2480078A0EB42
:203200006100401E8DF835009D489DF835100068085C9DF83310084100F00F008DF83400D1
:203220009DF83200FA280DD19DF834000F2805DA9DF83400401C8DF8340014E000208DF871
:20324000340010E09DF83200FB280CD19DF83400002805DD9DF83400401E8DF8340002E0EE
:203260000F208DF8340086489DF833109DF8352003680F208840D15C8143D15480489DF801
:2032800035109DF8334002689DF834008B5CA040184388549BE07B487C4900780978400074
:2032A000401E884204DD79490878401C08708EE07649002008708AE074480078002804DD83
:2032C00072490878401E087081E06E486F4900784000401E08707AE09DF83200302803DB29
:2032E0009DF83200392807DD9DF8320061286EDB9DF8320066286ADC6348007818B16348F7
:203300000078401C01E06148007800EBD07121F00101401A80008DF833005B48007828B112
:203320005A48007800EBD070401008E05748007800EBD07153480078A0EB6100401E8DF8EB
:203340003500002110220DF12E0010F065FB8DF834004B489DF833109DF8352003680F20B1
:203360008840D15C8143D15445489DF835109DF8334002689DF834008B5CA04018438854CF
:2033800040484249007809784000401E884204DD3E490878401C087019E03C4900200870E7
:2033A00015E09DF8320000283FF4FCAEFA383FF406AF401E3FF403AF401E3FF46CAF401EE5
:2033C0003FF47AAF401E3FF4CFAE401E84D12F480078C11000EB11702D49001108802B4822
:2033E0000078C11000EB117121F00F01401A2349088027480199B0F90000401C08801F48AB
:203400000199B0F90000401C48801A4910220DF11E002AF0F7FF364800780DF11E0102AAC5
:203420002EF0B2FDBDF80800324900F0FF000870BDF8080030490012087011220DF10A0025
:20344000002121F0C0F90B480DF10A011022012317F0D8FD009800680DF10A0111222CF09B
:20346000C3F826480DF10A011022012317F0CAFD10E0C04694120020C46B0300365B002057
:20348000886500208C6500208D6500208E650020345B0020009840680DF10A0111222CF0A2
:2034A000A3F814480DF10A010422012317F0AAFD009880680DF10A0104222CF095F8009824
:2034C0008068002101710098806831F0B7FBC0F180020098806802A12DF098FC0EB010BD8C
:2034E000202020494E535420434F444500C046C07C650020A4120020A51200209C120020B1
:2035000000B5ADF1140D0090009800788DF80A008E499DF80A00085CADF8080000208DF8DC
:203520000B00BDF80800002800F0B1819DF80A000D281FD1AD488068D0F8282402A95320A6
:203540009047BDF808004FF6FE71814208D0BDF808004FF6FF71814202D00098008930B977
:20356000A2488068D0F85413684688478FE10098019069E09DF80A0005280DD100988078B1
:20358000012800F084810098017CBDF8080040182430ADF8080023E09DF80A00072813D12D
:2035A0000098807828B9BDF808001B30ADF8080016E00098817D880000EB4110BDF80810C8
:2035C0000918ADF808100BE09DF80A000C2807D100984068C08A400A02D301208DF80B001D
:2035E000BDF808002AF023F8019008BB9DF80A000C2840F04C8100984068002800F0478195
:2036000031F083F9039079488068D0F854130098001D8847BDF808002AF009F8019018B9E4
:20362000039831F013FB32E1039831F00FFBFFE79DF80A00072807D09DF80A0043490A5CCB
:20364000019800992AF0DEFE9DF80A0005281BD101980390039903984968242218302AF0CE
:20366000D1FE03980399183048600398039A03994068127C496924302AF0C4FE0398039931
:2036800040682430486176E09DF80A00072872D1019803900098039900780870009803999A
:2036A00040784870009803998078887000980399C078C870009800998079497900F0FF00F7
:2036C00001F0FF0101EB00200099C97901F0FF0100EB01400099097A01F0FF0100EB01609C
:2036E0000399486003988078A8B903981B2101720099039889691B2210302AF083FE03986F
:2037000003991030C8600098806930F0D3FE0098002181612FE000980399807D0872039843
:20372000007A002814DD0098806988B1039A00990398137A896910309A0002EB43122AF0B6
:2037400061FE039803991030C86007E07B6B030003980021C160039800210172009880690E
:2037600048B10098806930F0A5FE0098002181610098002181754748006828B145480168FC
:2037800001988847002874D19DF80A000D284FD100984068007800F003008DF80C0000988C
:2037A00040680078C0F383008DF80D0000984068407800F0C0008DF80E009DF80C0001281C
:2037C0000DDC35489DF80D100078884207D19DF80E0020B9009890F83000022808D003489E
:2037E0008068D0F854136846884750E00C01002001982830049004980499C07F1E3121F07B
:2038000083FF0098408E4FF6FF71814228D1009840688079012823DD019827F083FA002898
:2038200035D01F488068D0F85413684688472EE09DF80A000C2813D1009840781A280FD052
:20384000019803900398406850B103984068C08A400805D303980399007C0F3121F054FFF4
:203860009DF80B00012804D00C48019900781FF0A9FA9DF80A000C2809D10098406830B1C5
:2038800007488068D0F854130098001D884705B000BDC046A81400208A09002058090020B6
:2038A0000C01002000B5ADF16C0D069000208DF83E000020ADF83A0000208DF84000002191
:2038C00012220AA830F040F80698C0680890089908980978407801F0FF0100F0FF0001EB06
:2038E0000021ADF8281065E106980068089A007D0AA922F0C1F98DF83C009DF83C0050B14D
:203900009DF83C00B82803D18A208DF83C0002E089208DF83C0006980068407D002840F050
:203920005B81069800684088002840F05581BDF828000090012001900698807A02900699C7
:2039400006989DF83C3000680968007D0022891D24F0ACFAFF208DF840003DE106980068E8
:20396000407D002840F03881069800684088002840F0328106980068BDF82810007D2EF012
:203980002DF80790079818B100208DF83C0004E08B208DF83C000AA807900120009006983A
:2039A000807A9DF83C2001900699069809680068079B007D891D17F0BFF8FF208DF840000E
:2039C0000AE1089810F8011B08908DF83D10202030F096FC09900998002861D09DF83D0077
:2039E00040B9069800680999007D2DF0E3FF8DF83E002FE000208DF83F0025E008980899AE
:203A00004078097800F0FF0001F0FF0101EB0021ADF828100898801C089006980068BDF814
:203A20002810007D2DF0DAFF48B19DF83E00099A411C8DF83E10BDF8281022F810109DF880
:203A40003F00401C8DF83F009DF83D009DF83F108842D3DC9DF83D0010B19DF83E00D8B1E9
:203A60002FF00AFEC0F11000C1B20120009001919DF83E00029009980390012004900698BC
:203A8000807A05900698069900680968007D02220123891D13F011F9099830F039FC1BE018
:203AA0000698C07A8DF8440089208DF845000120009001200190002002900698807A0390B2
:203AC000069A069906981268006809689288007D11AB891D25F086FEFF208DF840007BE0E5
:203AE00006980068BDF82810007D2AF05DFD18B100208DF83C0002E08B208DF83C0006984C
:203B00000068407D002867D1069800684088002862D1BDF828000090012001900698807A40
:203B20000290069906989DF83C3000680968007D0322891D24F0BAF9FF208DF840004BE0BE
:203B400006980068007D11A92DF034FF00288DF8640041D000208DF83F0004E09DF83F001A
:203B6000401C8DF83F009DF864009DF83F108842F4DC06980068007D2AF0F8FC2CE00020F1
:203B8000009006980068007D032100220DF13A0326F0ACFCBDF83A0000281DDD06980068BC
:203BA000089A007D0AA922F067F815E001208DF8400011E00698C07A00283FF495AE401E22
:203BC0003FF4CCAE401E3FF4FCAE401E88D0401EB6D0401ED3D0E9E79DF840001BB000BD35
:203BE00000B5ADF1440D06900020ADF8260000208DF828000698406907900798007800EBF3
:203C00004000401C80B230F07BFB0890089808B900207DE100208DF8290097E09DF82900C6
:203C20000799C0EBC0000918491C0B91069806990B9A006809681288007D898803AB1CF0BA
:203C40007BFDA0B99DF82800089900EB40000918862048709DF82800411C8DF82810089913
:203C600000EB400009180B980088488075E00B999DF812008978884214D09DF82800089958
:203C800000EB400009188D2048709DF82800411C8DF82810089900EB400009180B98008884
:203CA00048805AE09DF81300800814D29DF82800089900EB40000918882048709DF8280025
:203CC000411C8DF82810089900EB400009180B980088488041E09DF81300800914D39DF81C
:203CE0002800089900EB400009187E2048709DF82800411C8DF82810089900EB4000091895
:203D00000B980088488028E0059838B19DF8120005991EF042FAADF824000BE006980699A2
:203D20000B9A006809681288007D89882AF03BFAADF82400BDF82410BDF826004018ADF804
:203D400026009DF82900401C8DF8290007989DF82910007888423FF761AF9DF82800089922
:203D6000087008980078002840F0B2809DF82800C0EBC0008DF83400BDF826109DF8340094
:203D8000401880B230F0BCFA0C900C9820B9089830F0BEFA0020BBE09DF834100C984018A2
:203DA0000B9000208DF829007BE09DF829000799C0EBC0000918491C0E919DF829000C99EE
:203DC000C0EBC00009180F91069806990E9A006809681288007D898803AB1CF0ADFC002846
:203DE00066D00E980F99008808800B980F99C1F80300059888B10B9803A909AA29F080F8BF
:203E0000069806990E9B00680968007D03AA891D1EF004FE8DF840001AE009A800900E9A5B
:203E200006990B9B06980968128800688988007D28F04CFF06980E9A06990068D2F80330F1
:203E40000968007D03AA891D23F044F98DF840009DF84000D8B19DF82800089900EB400025
:203E600009189DF8400048709DF82800411C8DF82810089900EB400009180E9800884880DA
:203E80009DF829200C9906981CF0ECFC10E0BDF824100B9840180B909DF82900401C8DF8FF
:203EA000290007989DF82910007888423FF77DAF9DF82800089908700898007828B9089859
:203EC000002141700898012101700C9830F020FA069A127900210020D210520800D3012063
:203EE00000B901210091012001900698807A0290069A06990698089B12680068096892888D
:203F0000007D891D13F066FD089830F001FA012011B000BD00B5ADF13C0D049000208DF8E9
:203F20002C00002005900020069000200890049880690990099909980978407801F0FF01A7
:203F400000F0FF0001EB0021ADF8281009980999C078897800F0FF0001F0FF0101EB00211F
:203F6000ADF82A100998001D0990BDF8280029F0A3FC012813D1BDF828000090002001904B
:203F8000002002900498007C03900498049A417C8023921C48F2060017F0DEFF41E1BDF881
:203FA000280029F089FCC8B99F48BDF828100088884213D0BDF82800009000200190002073
:203FC00002900498007C03900498049A417C8023921C48F2060017F0BFFF22E1099911F8A9
:203FE000010B09918DF82D0070B19DF82D00400030F066FA059038B19DF82D000999059A45
:2040000026F0ECFC099002E000208DF82D00099911F8010B09918DF82E0070B19DF82E006D
:20402000400030F04DFA069038B19DF82E000999069A26F0D3FC099002E000208DF82E0022
:204040007A48006807900798002800F0B180079840680078002800F0A4800798807B4008DA
:20406000C0F09F800798806858B10798826807984068017801209047089001208DF82F0033
:2040800006E0079840688068089000208DF82F00089800287DD00899BDF82A00498888426F
:2040A00005D0BDF82A004FF6FF71814271D160480C900899CA7908999DF82D008B68059976
:2040C00022F035FC50B908990A7B08999DF82E000B69069922F02BFC00285AD09DF82D109A
:2040E0009DF82E004018142101EB40018DF838109DF8380029F09BFA0D900D9800283FD082
:204100000D98D221017004980D99408848809DF82D000D9908719DF82E000D9908739DF86A
:204120002D0060B10D980D99143088600D989DF82D104A00806805992AF064F902E00D9885
:20414000002181609DF82E0080B19DF82D100D9800EB41000D99143008610D989DF82E10FB
:204160004A00006906992AF04DF902E00D98002101610798406840680D9900781EF022FE48
:204180009DF82C00411C8DF82C1008990C9A09788154089828B19DF82F0010B1089830F0E5
:2041A00089F9079800680790079800287FF44FAF9DF82C00A8B11C48008800909DF82C0050
:2041C00001901B4802900498007C03900498049A417C0023921C48F2060017F0BDFEB0B97B
:2041E00015E00498007B90B90F4800880090002001900F4802900498007C03900498049A7C
:20420000417C0023921C48F2060017F0A5FE059810B1059830F04EF9069810B1069830F0A7
:2042200049F90FB000BDC0464C6E0020F86E00203067002000B5ADF13C0D079000208DF8CB
:2042400030000798807E27F0C7FD0B900B9808B9022078E10798C06908900898007808B903
:20426000022070E1089800788000401C30F028F90A900A9808B9102065E12FF01DFE23F0D6
:204280000DFB8DF830009DF8300020B10A9830F011F9102057E100208DF8330000208DF81A
:2042A000320000208DF83100FEE09DF831100801A0EB410008990918491C099100208DF807
:2042C000300007980799099A807E8989B2F801201CF0F2FB8DF834000799099A079889894B
:2042E000B2F80120807E04AB1CF026FA8DF835009DF83400FF2802D09DF8350018B987205C
:204300008DF83000A9E009980078002840F0A28009999DF81600C978884240F097809DF898
:204320001700C008C0F08E80099880884FF6FF71814249D10998C088002845D101208DF8D8
:20434000330082489DF834209DF834300068162101FB02007D4940890968162202FB031198
:20436000C8807A489DF8342000689DF83430162101FB0200754980890968162202FB031133
:20438000088172489DF834200068162101FB020000210E30042220F016FA6C489DF8342012
:2043A0000068162101FB020068499DF83430096816220E3002FB0311042212312AF022F821
:2043C00000208DF8300048E001208DF833005F489DF834200068162101FB02010998808830
:2043E000C8805A489DF834200068162101FB02010998C08808810998C07819F03BFCE8B128
:2044000052489DF834200068162101FB020000210E30042220F0D7F90998C0780DF090FDB4
:2044200002464A489DF834300068162101FB03000999D1F80A100E3029F0E4FF00208DF8A7
:2044400030000AE08C208DF8300006E08D208DF8300002E000208DF830009DF83000F0B17C
:204460009DF832100A9800EB81009DF8301041700A989DF8321000EB8100099909788170D8
:204480000A989DF8321000EB81000999B1F80110A0F803109DF83200401C8DF832009DF8C1
:2044A0003100401C8DF8310008989DF83110007888423FF7FAAE9DF8330001281CD12448D9
:2044C000224A00781268162111FB00F081B256202EF057FB8DF830009DF8300050B91C484B
:2044E0001A4A00781268162111FB00F081B256202EF056FB10F00CFE9DF832000A9908702F
:204500000A98007828B90A98002141700A980121017001200090012001900798807A029069
:20452000002003900A9B079A079807999289807E0E310DF02FF90A982FF0BCFF2DF062FAD1
:204540002AF088FC00200FB000BDC046F46E0020286F002000B5ADF11C0D019100900098AC
:204560002EF084FB8DF810009DF8100010B19DF8100048E1019808B90C2044E10198006829
:2045800008B90F203FE1AB4800684FF0FF312FF02CFD4FF0FF300290002003900020059091
:2045A0000598042826DA0598A34951F8300058B90598A24951F8300030B90298B0F1FF3FBC
:2045C00012D1059802900FE005989C4951F830000199884205D19748006830F0ACF90C206D
:2045E00011E10398401C03900598401C059005980428D8DB0298B0F1FF3F05D18D480068A9
:2046000030F099F90D20FEE002998B4A009842F831000299894A019842F831000398002835
:2046200040F3DD80039801284BD18648844900680968006808608248006800210175804835
:204640000068002141757E480068002101617C497C4809680068886179487A4900680968C2
:20466000C86078480068017A880000EBC100754909680C3840180121017572480068017A3B
:20468000880000EBC1006F4909680C384018002141756C480068017A880000EBC1006949CD
:2046A00009680C38401859A1016166480068017A880000EBC100634909680C384018624968
:2046C00081610399880000EBC1005D4909680918002008750399880000EBC1005849096871
:2046E0000918002048750399880000EBC100544909680918002008610399880000EBC10064
:204700004F4909680918019888614D4801990068C8600198017A880000EBC10001990C3808
:204720004018012101750198017A880000EBC10001990C384018002141750198017A880098
:2047400000EBC10001990C38401830A101610198017A880000EBC10001990C3840183A4943
:2047600081610399880000EBC100354909680C304018022101750399880000EBC100304922
:2047800009680C304018002141750399880000EBC1002B4909680C30401821A10161039934
:2047A000880000EBC100264909680C304018274981610398012804D12148006803210172FE
:2047C00004E01F480168087A401C08721C481D49006808601A481E490068086005E001981C
:2047E0001849086001981A490860164800681949007A401E0860002008F008FB0D4800684C
:2048000030F099F8002007B000BDC0463C2020202020204241434B2020202020203E00C082
:204820003C20202020202048454C502020202020203E00C0686B0020006A0020FC69002093
:20484000E00F0020606B0020E1020300C54501005C6B0020D80F002000B5ADF1540D0B9030
:2048600000200C9000208DF84E000B98806900788DF84F0000210DF14D029C2021F08CFBEF
:20488000B148007818B1B048007801280DD1002004212BF0F5FC8DF84E009DF84D009DF8CC
:2048A0004E1040188DF84D0002E001208DF84D009DF84F009DF84D10884280F227819DF84C
:2048C0004F109DF84D00401A8DF84C009DF84C00022802DD02208DF84C009DF84C101A2064
:2048E00010FB01F000B22FF0EBFD0C900C98002800F00F8100208DF84A000C980D909DF856
:204900004F008DF84B00A1E09DF84E009DF84B10884240F384809DF84B00411C8DF84B1006
:204920002BF0C6FC0E900E98002800F08A8087480D99008808800D988549801C2FF09DFBE9
:204940000E980D99008848820D980221C1750D98FF2101760E980D99807A487600208DF8D6
:204960003C000E980088ADF83E000FA81FF0A0FF012805D10D9810A90A302FF07EFB05E071
:204980000D98FF2108220A301FF01DFF0E980079C0B90E98008830B90D98002101750D9833
:2049A0000021017607E00D980121017569480D990078401E08760D98022141750D9800214C
:2049C000817528E063480D990078401C08760E98007903280EDA0D98022101750E980079A7
:2049E000012803D10D980021417511E00D98012141750DE00D98012101750E98007903285C
:204A000003D10D980021417502E00D98012141750D98012181750D981A300D9011E09DF818
:204A20004E009DF84F10884203DB00208DF84B0065E09DF84E109DF84F00401A8DF84B0056
:204A40005DE09DF84A00401C8DF84A009DF84C009DF84A1088423FF757AF50E09DF84B1019
:204A6000481C04AA8DF84B00872021F095FABDF81A000D9908800D983549801C2FF0FDFA3B
:204A80000D980DF112010A302FF0F7FABDF810000D9948822C48007818B12B480078012818
:204AA00009D10D98022141750D98022181750D98FF2101760AE00D98012141750D98002177
:204AC000817524480D990078401E08760D980221C1750D999DF8220048760D98408A18B921
:204AE0000D980021017502E00D98012101750D981A300D909DF84A00401C8DF84A009DF830
:204B00004C009DF84A108842A8DC02E000208DF84C009DF84F0000909DF84C0001900C98AF
:204B20000B990290002003900B989DF84D30407C0022891C0AF050FB0C9810B10C982FF0E7
:204B4000B9FC15B000BDC0467E0D00209C090020B1090020B00900202DE9FE4F0D460746F2
:204B600028687C68BE6800283AD02FF0CEFED4F8F81081460120019008294FF0000088BF7A
:204B80000198A968084202D16968084205D0019880F00100C0B201281DD1D4F8D000B8B9BE
:204BA000C4F8D050C4F8D4500020C4F8E0000146C4F8E41094F80C31C4F8E810002BC4F822
:204BC000EC100CBF01980520D4F8D410087411E094F8080138B903202874484630F036F812
:204BE0000020BDE8FE8FD4F8D4004561C4F8D45006232B74D4F8D4000021416194F80C0179
:204C0000012809D1022294F80B318E49E06984F80C21194329F014FC686810F0704F06D1F1
:204C200028B104202BF064FC06202BF061FC02202BF05EFC94F80801DFF80C82002840F075
:204C40008F80F0692968884240F28A8094F80C01002840F0858094F8090120B1D4F8FC0030
:204C6000B0F1FF3F7CD148462FF0F0FFA868B24600280CBF04F58277071C6868031C0CBFA2
:204C800004F583761E1CD4F8F80009282CBF4FF0020BDDF804B0DAF80000D5F8009041685B
:204CA000B9F1000F41F00201416008BF191C32D04146A1F11008D4F8F810092910D3D8F87E
:204CC00000104A6831889047D8F80000C168DAF800000A4669469047BDF8000038800FE085
:204CE000D8F800104A6831789047D8F80000C168DAF800000A46694690479DF800003870C4
:204D0000AB6803B15F44696801B15E44DAF80000B9F10109CFD1D4F80051C36800221D4215
:204D200018BF019A102D18BF82F00102002AF4D111F0704F06D129B106202BF0C1FB0420F7
:204D40002BF0BEFB02202BF0BBFBD4F8D010002008740746C4F8D4703E46C4F8D0606EE039
:204D6000D4F8E800002843D1D4F8EC00002842D130792FF0CCFD4546D4F8DC002A68316960
:204D800040685268006891FAA1F1B1FA81F1134602229847D4F8DC002A687169406852683D
:204DA000006891FAA1F1B1FA81F113460222984730792FF0A6FD30792FF0ABFD204631463D
:204DC0000AF0C6FA0021D4F8D000C4F8F0100068B0F5806F03D9204631460AF0B9FA94F8B2
:204DE0000E0160B93168486840F00200486006E0D4F8EC0018B9204631460AF0A9FA3168E6
:204E0000486940F00100486148462FF01FFF94F80801A0B9D4F8FC1004F17C0528462FF073
:204E2000E4F860B1D4F8D0000321017438460AF017F9284600212FF0D8F800200190019800
:204E4000BDE8FE8F00000780D401001000B5ADF12C0D8DF824308DF8232003918DF822004C
:204E600000208DF827000398007A012803D00398007A032806D19DF8220018B19DF8220007
:204E8000FF2801D100203BE10398007A032804D19DF8230008B9002032E1039905A80A22A7
:204EA00029F0B0FA9DF823008DF81E000020049020F012FD03981EF020FBADF802009DF801
:204EC00022008DF800000398007A012806D101208DF8050000208DF8040006E000208DF837
:204EE00005009DF823008DF80400BDF802004FF6FE71814200F0FD8000208DF8260039E0ED
:204F00009DF826100801A0EB41007E49085C9DF80010884229D19DF826100801A0EB4100BD
:204F20007949085C9DF8051088421ED19DF826100801A0EB41007549085ABDF80210884297
:204F400013D19DF826100801A0EB41007049085C9DF80410884208D19DF826100801A0EB05
:204F600041006849401804900AE09DF82600401C8DF8260067489DF8261000788842BFDC50
:204F8000049800284FD000208DF8250044E09DF825000C9931F81010049827F014FA0028AF
:204FA00035D19DF825000C9931F81010049828F063FE10B90020049029E0574802889DF8EA
:204FC00026009DF826100301A3EB40034D481B1802201EF0CDF99DF825000C9931F81000B5
:204FE000ADF820004D48006818B14C48016805A888479DF825100C9A9DF8220032F811103B
:205000000123002223F0E4F801208DF827009DF82500401C8DF825009DF824009DF825104B
:205020008842B4DC65E00AA823F004F90490049800285ED09DF80000049908709DF8050045
:2050400004994870BDF80200049948809DF804000499087132489DF824100078884203DACE
:205060002F4800788DF8240000208DF8250020E09DF825000C9931F81000ADF82000274802
:20508000006818B12548016805A888479DF825100C9A9DF8220032F811100123002223F0C2
:2050A00097F801208DF827009DF82500401C8DF825009DF824009DF825108842D8DC9DF83E
:2050C0002400049948719DF8241004984A000C99801D29F097F9104802889DF828109DF878
:2050E00028000301A3EB400306481B1802201EF03FF99DF82700012801D128F067F90498FF
:205100000BB000BDC0660020C1660020C2660020C4660020CA660300CC660300A8130020B5
:20512000CB66030000B5ADF1340D01918DF80C000198C0082AD31BE003F0F6FC22E0012023
:20514000012122F013FC1DE02DF0C1FC04200121FCF716FC16E0984900200870974900207B
:20516000087097480078322204212DF012F909E0924800780028DFD0401EE0D0C01EE3D00E
:20518000801EE8D0019880F0040013E10198000C30D324E004980078D32803D104982AF073
:2051A000EDF919E08548049900780978884203D104980DF08DFD0FE0049800780A280BD1DB
:2051C00080480499007808717F48006820B17E4801680498801C884704982CF090FA784841
:2051E00000781CF04DFC00280490D3D1019880F40040DFE00198400B05D324F089FD019887
:2052000080F48050D6E00198000A05D31DF05EF9019880F08000CDE00198800819D36B48BF
:205220000078012803D06948007802280DD104A8002108221FF0C7FA04A827F07BF920B1FA
:205240005F480078022119F009FC019880F00200B0E00198000B03D3019880F40060A9E0F3
:205260000198C0092DD31BF071FC02900298F0B157490878401E087055480078002816DD61
:205280004F4800784FF4804125F082FA40B9514800682BF04DFA18B9029800781FF062F8C2
:2052A00047480078402143F698222DF072F84848007810B90B202DF06FFE019880F040003D
:2052C00078E00198800B6BD30020079042480068079000208DF82000079800284AD000200E
:2052E000099007984068099007984068007820B1079840680078F12803DB07980068079051
:2053000035E0099800780321002204AB1BF014FA50B306980A900A980088002807DD0A993D
:205320000888401E088001208DF820001CE022490020087003208DF82D0000208DF82C008C
:205340000BA800901E480078002203230A2121F0DBFC1949002008702048006820B11F48CF
:20536000016809980078884707980068079007980028B4D19DF8200040B1114800784FF438
:2053800000514FF47A722DF004F805E00C4800784FF400511CF02EFB019880F4005009E0B4
:2053A0000198C00B05D30EF09FFA019880F4804000E000200DB000BD62120020F06E0020C1
:2053C000266F002063120020640E00207E0D00203C0E0020480E0020400E0020A413002021
:2053E0002DE9F04FA94C20780D46290CADF13C0D80F02281A90B80F01381690880F002812D
:20540000A90938D29D480078A9081BD2A80A04D31CF0ACFD85F400702CE1280904D3012078
:20542000E07085F0080025E1E80A09D31CF0CCFCB4F84400012114F027FE85F4806019E169
:20544000002017E140B9618F01202AF057FA207801211CF0CFFA0BE068462FF0D7F92EF08A
:20546000F3FF8749874F0A783B78694624F0C4FA85F00200FEE0202125F08AF920B9E0688F
:20548000002808BF012615D02FF0DCFB06462EF0CFFF4FF47A717043B0FBF1F1E068002805
:2054A00008BF002004D088428CBF4FF0FF30081A46086BD00020042102462BF055FF071CE4
:2054C00064D04FF0000B4FF0FF094FF0060A384604215A462BF048FF0E903889864204D810
:2054E000801B83B23B8113B14DE0A7F808B0BB7B012B02D17889C0083ED3002B39D08DF810
:2055000000908DF801904FF0FF308DF802003968086AC97F01AA0FF017FFD846012808BFC7
:205520004FF001085FEA08001DD0788A40F08000ADF83200B87B8DF834007889000908D38B
:20554000BDF8320040F48070ADF83200387B8DF836007B6913B1187BADF8140069465A46B8
:2055600001A801F029FD87F80DA0387B1EF088FC09E00120787306E087F80DA03868407B98
:20558000B72127F03BFA0E9F002FA0D12DF0EAFA0020012102462BF0E7FE18B1207820216D
:2055A00019F05CFA0020042102462BF0DDFEB6B278B10789042100222BF0D6FEE8B9BE4211
:2055C000AEBF0027BF1BBFB2207827B9202119F045FA00200DE07A0020212CF0DAFE2FF010
:2055E00031FB06462EF024FF4FF47A717043B0FBF1F0E06085F020003CE00189B942D8BF78
:205600000F1CD7E794F84C000F2806D194F8460018B1012801D028F09BFE85F0010029E0F6
:2056200026F07CFD071C04D0FDF7C4F938462CF066F885F400501DE01CF022FA071C17D043
:20564000114908310A78FF2A0FD03C780B460020944207D0401CC0B2C200D1189A5CFF2AC3
:20566000F6D102E049683846884738462CF047F885F400400FB0BDE8F08FC0466F0A00206F
:205680005F0D0020600D0020D46403005809002000B5ADF18C0D00900021802201A81FF03E
:2056A00092F8A248006810B3A04800680088F0B90098E0B112E09E4800682CF026FE9C483D
:2056C0000068642129F09DFE19E0994800682CF01CFE9748006828F0FFFD10E00098007856
:2056E000801FE8D0401EE6D0801EE4D0EDE7904800682CF00AFE8E48006828F0EDFD01A8CC
:205700004DA12DF05CFAFFE701A852A12DF057FAFFE70098002800F0838001A850A12DF0E8
:205720004EFA54E001A853A12DF049FA78E001A853A12DF044FA73E001A855A12DF03FFA58
:205740006EE001A855A12DF03AFA69E001A855A12DF035FA64E001A855A12DF030FA5FE06E
:2057600001A858A12DF02BFA5AE001A855A12DF026FA55E001A853A12DF021FA50E001A84C
:2057800050A12DF01CFA4BE001A852A12DF017FA46E001A852A12DF012FA41E001A855A145
:2057A0002DF00DFA3CE001A855A12DF008FA37E001A858A12DF003FA32E001A855A12DF04A
:2057C000FEF92DE001A858A12DF0F9F928E0009800780F28F6D802A151F820008746C04618
:2057E000255700002F57000039570000435700004D57000057570000615700006B570000B1
:20580000755700007F57000089570000935700009D570000A7570000B1570000BB57000010
:20582000444845490068096801AA07F065FD8DF8840023B000BDC0465B1B5B33366D4C6F70
:20584000676963616C204465766963651B5B306D5D2000C0456E642044657669636500C041
:20586000205B1B5B33366D53746174651B5B306D5D2000C0496E697469616C697A6564009A
:205880004E6F74204F6E204E6574776F726B00C0446973636F766572696E67004A6F696E23
:2058A000696E670052656A6F696E696E6700C0464A6F696E656420556E73656375726564D8
:2058C00000C046C0496E20746865206E6574776F726B00C04F727068616E656400C046C009
:2058E00053656E64696E67204B65657020416C69766500C04261636B696E67204F66660080
:2059000052656A6F696E696E67205365637572656400C04652656A6F696E696E6720556E69
:2059200073656375726564002D2D00C08065002064650020606500205465002000B5ADF163
:20594000B40D039202918DF814000021022204A81EF039FF9DF814008DF81000D6E09B49B6
:2059600025A81B221AF00AFB01208DF89B009848007825A906AA2CF019FBBDF84E009549E6
:205980000880DAE0944906A864221AF0F7FA01208DF832008F480088ADF834008C4800785D
:2059A00006A92DF051FE8D4906200880C5E08B48B0F90000062800F0C0808849B1F900004E
:2059C000401E0880B9E08548B0F90000092800F0B4808249B1F90000401C0880ADE07F48D0
:2059E000B0F90000C0F1090080008DF8180079489DF818100088084100F00F008DF819003B
:205A00009DF819001130C11000EB117121F00F01401A8DF819006F4A9DF818100F208840D3
:205A20001188814311806B499DF818209DF8190090400A88104308807FE06848B0F9000054
:205A4000C0F1090080008DF8180062489DF818100088084100F00F008DF819009DF81900EC
:205A60000F30C11000EB117121F00F01401A8DF81900584A9DF818100F20884011888143DD
:205A8000118054499DF818209DF8190090400A881043088051E09DF81400302803DB9DF87B
:205AA0001400392807DD9DF81400612845DB9DF81400662841DC4948B0F90000C0F10900F3
:205AC00080008DF818000021102204A80DF0A4FF8DF819009DF818103E4A0F208840118897
:205AE000814311803B499DF818209DF8190090400A88104308803948B0F9000009281CD0CE
:205B00003649B1F90000401C088016E09DF8140098B10D3811D0ED383FF461AF401E8CD048
:205B2000401E3FF450AF401E3FF441AF401E3FF416AF401E3FF426AFADE7264800884FF6C9
:205B4000FF71814205D10298006816A12EF0DCF915E001200090002001901E48008806A99C
:205B6000102204231CF08EFA0298006812A12EF0CBF90298006806A904222BF047F99DF8DA
:205B8000140068B1029880680DA12EF0BDF903980121018011480399B0F90000401C4880D4
:205BA0002DB000BD202020203078464646462028616E792900C046C020202020307800C0A4
:205BC000202020202050414E20494400886903007C6500208C110020E8620300D414002092
:205BE0002DE9F04FDFF84C9204460D460020ADF1440D01461F460D9016460E9183460F9142
:205C0000D9F808A0CDF840B01DF03AFD262803D01DF036FD252825D1308843F607018142B2
:205C20000ED040F60201814206D0B0F5C15F19D1F07B022816DD43E0F07B022812DD3FE0B7
:205C400096F8240002280DDD307C0F2838D13169C1F31421B1F5803F04D00F2830D1B1F5F8
:205C6000A02F2DD1002D2BD056B328784FF0010808FA00F01AEA000F22D0304659462EF014
:205C800054FE65606C4DA660A86980B110A800900DA90EAA0FAB304611F0A0FD0E980B2196
:205CA0004FF6FF7250232BF021FEFF2808D02EF02CFE82462878022804DB50462EF0C6FF50
:205CC0005C46B2E000286DD109F02EFE5B495C4E086840F00200086009A8C9F800602EF0BD
:205CE00087FA584E5849707809AA0B9005F1DC0024F04AFE554905F58C7009AA24F044FEDB
:205D000009A82EF025FA192109AB3078504A0A9005F15C0028F030F94E4A05F178001A21F7
:205D200009AB28F029F94C495A4605F5AA70134627F062FD49495A4605F5CC70134627F085
:205D40005BFD47480068C0F3814030B1454A05F1300004215B462BF0DDFDB078012802D10B
:205D60000E2016F007FD05F19C002DF06FFF05F194002DF06BFF594685F82C1085F82010B8
:205D8000072085F84002A962A960374B197085F82D100526E960354A2E6104206A622CF0B6
:205DA000BDF8287805EB8001401CC1F8B440C0B2287050462EF04AFF1FB901A82DF0A0FFD0
:205DC00001AF38684FF4FA76E6602060B86941466062388A6175E082F869E06278680028EB
:205DE0000CBF40F6C410594620612148E06120622175A061F86800B1E061786900B1206285
:205E0000B86800B1A061C82204F1300059461EF0DAFC04F1480059462BF004F915495A462C
:205E200004F1B000134627F0E7FC204611B0BDE8F08FC046CC21084020010020002009403A
:205E4000110000E0306D030099340300D5AC0100399302008D740200C1250300F52D030080
:205E6000B44F00502DBB0200666D00205D8501000BCE00009548030000B5ADF11C0D009149
:205E80008DF808000098019001984068002800F0308101984068007829F04CF818B10198CA
:205EA000D021417028E129F061F895490978814203DC0198D12141701EE100208DF81000D4
:205EC0000198002141709DF8080029F099FD0390039810B10398007B88B11C202EF0F0FA89
:205EE0000390039858B101208DF81000039800211C221EF068FC9DF80800039908710398FC
:205F0000002800F0F98001984068039900780873019840680399007A08767A49039801618B
:205F200014202EF0CDFA0399486103984069002800F0848003984069002114221EF043FCBB
:205F4000019903984968406949688079897920F00F0001F00F0101430398406981710198D3
:205F600040680399406849698088888001984068039940684969007808700198406803996F
:205F8000406849694088488001984068039940684969C079C8710198406803994068496937
:205FA000007B087303984069C07940002EF088FA039949698860039840698068C0B100209B
:205FC00006900FE00198406840680699806830F8111003984069069A806820F812100698DF
:205FE000401C0690039840690699C0798842E9DC03984069007B40002EF062FA039949693D
:206000000861039840690069C0B1002006900FE00198406840680699006930F8111003987F
:206020004069069A006920F812100698401C0690039840690699007B8842E9DC03980C3020
:206040002BF043FE8DF814009DF81400022803D09DF81400B82809D10398007B1EF044F9E1
:2060600003980C302BF031FE8DF814009DF8140060B99DF8100001282FD1039824F0D4FD56
:2060800000282AD103982EF0D3F826E09DF81000012803D103982EF0CBF81EE003984069F3
:2060A000A8B103984069806820B10398406980682EF000FA03984069006920B10398406984
:2060C00000692EF0F7F9039840692EF0F3F90398002110220C301EF076FB9DF8140002287F
:2060E00003D09DF81400B82802D10198D021417002E0019802214170012007B000BDC0464C
:20610000B8130020676D00202DE9F04F984CDFF870A2DFF8789220788B465FEA1B41ADF1F1
:20612000140D80F08A80934909785FEA9B0204D30120E0708BF0020017E1012923D15FEA5D
:20614000DB0120D38C490F7800259FB18B494FF6FE722C46891F31F8063F9A4208D08B88C7
:206160005B1E9EB2002E8E8006BF0A808C7001257F1EF0D125B104214FF4FA722CF009F983
:206180008BF00400F1E05FEA1B1038BF0020C0F0EC804D460E35E76928780026B04600091D
:2061A0001FD22EF04FFD05462EF042F94FF47A7152466843B0FBF1F315787249206A0A887C
:2061C000181A824236D8B0FBF2F189B28D42A8BFCDB2B0FBF2F15143401A80B21B1A2362D5
:2061E00000E00125EFB1C146F878A8420ADD401BC0B2F87040B108F101061FFA86F83E4670
:206200007F680CE087F803907868002E82460CBFC4F81CA0706038462EF04CF95746002F03
:20622000E2D12078B8F1000F04D10021216208211BF0E0FB8BF0080097E01BF021FC071C8E
:2062400000F09180B87FC0B9788CE569132815D1B7F80280281C11D000260188884508D16F
:206260004568002E0CBFE56175602EF023F9284601E0064640680028EFD1E569B87A97F8E9
:2062800031102E46022852D1788856B13288904204D1B2789AF80030914246D07668002EB3
:2062A000F4D180460E46002D08BF002004D0012015B16B68002B34D133490988814236DD4A
:2062C00008202EF0FDF85146097800282FD0A0F800808670C17000234360E66986B9E06170
:2062E0004D46A87B000910D22EF0ACFC06462EF09FF84FF47A717043B0FBF1F0206201E066
:2063000068604D46A87B000911D32078082124F03FFA60B91B4920780A8808212CF028F8F8
:2063200005E0401C1D4680B2C2E7F37018E03878012805D0022813D1384620F00DFC0FE041
:20634000387E0090F87C019078690290787E0390BA89B91C07F1100307F11C0006F0D6FAF9
:2063600038462BF0CCF98BF4004005B0BDE8F08F980F0020640D00205B130020B85F00200A
:20638000720D0020700D0020740D00207809002000B5ADF1140D009001208DF80800009835
:2063A0000190C4E0009803900398806818B1039880682EF07FF800982BF0A1F924E100982F
:2063C00003900398406918B1039840692EF072F800982BF094F917E10098039003984069AA
:2063E00018B1039840692EF065F800982BF087F90AE1009803900398406918B1039840697B
:206400002EF058F80398C06918B10398C0692EF051F800982BF073F9F6E00098039003989B
:20642000C06818B10398C0682EF044F800982BF066F9E9E0009803900398C06818B1039821
:20644000C0682EF037F800982BF059F9DCE0009803900398C06818B10398C0682EF02AF84C
:2064600000982BF04CF9CFE0009803900398C06818B10398C0682EF01DF800982BF03FF9DD
:20648000C2E0009803900398C06818B10398C0682EF010F800982BF032F9B5E0009803901C
:2064A0000398C06818B10398C0682EF003F800982BF025F9A8E0009803900398C06818B164
:2064C0000398C0682DF0F6FF00982BF018F99BE0009803900398406918B1039840692DF00F
:2064E000E9FF00982BF00BF98EE0009803900398C06A18B10398C06A2DF0DCFF00982BF066
:20650000FEF881E0009803900398806818B1039880682DF0CFFF00982BF0F1F874E00098B7
:206520002BF0EDF870E000208DF808006CE001980078C72818DCC728F1D092280BDC922813
:20654000D3D0801FDED04238E9D018381C281CD93138E4D0E7E79538E1D0401EDFD02F38B2
:20656000DDD0401EDBD0DEE7C838D8D0401ED6D0401ED4D0401ED2D01538D0D0801ECED0C9
:20658000401ECCD00838CAD0CDE702A151F820008746C046BF630000D96300001F650000B2
:2065A0001F650000F36300001B64000035640000276500004F640000276500001F6500009A
:2065C0001F6500001F6500001F65000069640000836400009D640000B76400001F650000DB
:2065E0001F6500001F650000D1640000A56300001F65000027650000276500001F65000036
:20660000276500001F6500009DF8080005B000BD00B5ADF1340D0492ADF82E108DF8300099
:2066200001208DF833008E480068002800F0158100208DF831008A48006840680590894877
:2066400000884FF6FF7181420DD00598864A007801211FF079FF83480088ADF82400012092
:206660008DF82C000AE003208DF82C009DF8300020B1BDF82E0009A92BF0C8FA00208DF8FE
:2066800032002CE009A800907A48007801909DF83000774B02900120039005999DF832205E
:2066A0008968059809691B6831F812106F4A007812781FF031FE8DF833009DF83300B228B9
:2066C00014D09DF8330028B901208DF831009DF8300058B19DF83200401C8DF83200059811
:2066E00080689DF83210007B8842CBDC9DF83300B2283ED09DF8310018B19DF830000028C3
:2067000037D000208DF832002CE009A800905948007801909DF83000584B029000200390F7
:2067200005999DF832208968059889681B6831F81210514A007812781FF0EEFD8DF8330038
:206740009DF83300B22814D09DF8330028B901208DF831009DF8300058B19DF83200401C42
:206760008DF83200059880689DF83210C0798842CBDC9DF8310001282DD19DF8300020B1D9
:2067800004980068FF21017303E00498006880210173344800884FF6FF7181421FD0BDF845
:2067A0002E00ADF8180002208DF82000314800788DF8210032482B49009001200190002040
:2067C00002900020039005980B880078002206A910F002FE03E004980068FF2101739DF8EB
:2067E0003300B22814D12749002008702648007840211BF0FFF81F482AF050FA22480078A9
:206800004FF480411BF0F6F80C202CF0C5FB24E01E480078FF2820D11148006810490068F7
:2068200008600F48006898B10D4800684068007828B10B48006840680078F12808DB08480B
:206840000068074900680860054800680028EBD10348006800287FF4EBAE0DB000BDC046B0
:20686000440E002060120020081500201F6D0020206D0020186D0020246D0020286D002073
:20688000AC1400203C0E0020266F0020AC13002000B5ADF1340D039000208DF81800002016
:2068A0008DF819000398406904900398C07A022810D10498007800EB4000401C80B22DF098
:2068C0001FFD0590059808B9002013E101208DF8180001E000200DE100208DF81A00D1E078
:2068E0009DF81A000499C0EBC0000918491C0A91039803990A9A006809681288007D8988E4
:2069000007AB19F019FF002800F0A0809DF82300000A01D3012000E0002003990979C1F3E3
